{
  "_format": "hh-sol-artifact-1",
  "contractName": "AuditPayment",
  "sourceName": "contracts/AuditPayment.sol",
  "abi": [
    {
      "inputs": [
        {
          "internalType": "address",
          "name": "dao_",
          "type": "address"
        },
        {
          "internalType": "address",
          "name": "audit_",
          "type": "address"
        }
      ],
      "stateMutability": "nonpayable",
      "type": "constructor"
    },
    {
      "anonymous": false,
      "inputs": [
        {
          "indexed": true,
          "internalType": "address",
          "name": "previousOwner",
          "type": "address"
        },
        {
          "indexed": true,
          "internalType": "address",
          "name": "newOwner",
          "type": "address"
        }
      ],
      "name": "OwnershipTransferred",
      "type": "event"
    },
    {
      "stateMutability": "payable",
      "type": "fallback"
    },
    {
      "inputs": [],
      "name": "audit",
      "outputs": [
        {
          "internalType": "address",
          "name": "",
          "type": "address"
        }
      ],
      "stateMutability": "view",
      "type": "function"
    },
    {
      "inputs": [
        {
          "internalType": "address",
          "name": "holder",
          "type": "address"
        }
      ],
      "name": "computeNextVestingScheduleIdForHolder",
      "outputs": [
        {
          "internalType": "bytes32",
          "name": "",
          "type": "bytes32"
        }
      ],
      "stateMutability": "view",
      "type": "function"
    },
    {
      "inputs": [
        {
          "internalType": "bytes32",
          "name": "vestingScheduleId",
          "type": "bytes32"
        }
      ],
      "name": "computeReleasableAmount",
      "outputs": [
        {
          "internalType": "uint256",
          "name": "",
          "type": "uint256"
        }
      ],
      "stateMutability": "view",
      "type": "function"
    },
    {
      "inputs": [
        {
          "internalType": "address",
          "name": "holder",
          "type": "address"
        },
        {
          "internalType": "uint256",
          "name": "index",
          "type": "uint256"
        }
      ],
      "name": "computeVestingScheduleIdForAddressAndIndex",
      "outputs": [
        {
          "internalType": "bytes32",
          "name": "",
          "type": "bytes32"
        }
      ],
      "stateMutability": "pure",
      "type": "function"
    },
    {
      "inputs": [
        {
          "internalType": "address",
          "name": "_auditor",
          "type": "address"
        },
        {
          "internalType": "uint256",
          "name": "_start",
          "type": "uint256"
        },
        {
          "internalType": "uint256",
          "name": "_cliff",
          "type": "uint256"
        },
        {
          "internalType": "uint256",
          "name": "_duration",
          "type": "uint256"
        },
        {
          "internalType": "uint256",
          "name": "_slicePeriodSeconds",
          "type": "uint256"
        },
        {
          "internalType": "uint256",
          "name": "_amount",
          "type": "uint256"
        },
        {
          "internalType": "contract ERC20",
          "name": "_token",
          "type": "address"
        },
        {
          "internalType": "uint256",
          "name": "_tokenId",
          "type": "uint256"
        }
      ],
      "name": "createVestingSchedule",
      "outputs": [],
      "stateMutability": "nonpayable",
      "type": "function"
    },
    {
      "inputs": [],
      "name": "dao",
      "outputs": [
        {
          "internalType": "address",
          "name": "",
          "type": "address"
        }
      ],
      "stateMutability": "view",
      "type": "function"
    },
    {
      "inputs": [
        {
          "internalType": "address",
          "name": "holder",
          "type": "address"
        }
      ],
      "name": "getLastVestingScheduleForHolder",
      "outputs": [
        {
          "components": [
            {
              "internalType": "address",
              "name": "auditor",
              "type": "address"
            },
            {
              "internalType": "address",
              "name": "auditee",
              "type": "address"
            },
            {
              "internalType": "uint256",
              "name": "cliff",
              "type": "uint256"
            },
            {
              "internalType": "uint256",
              "name": "start",
              "type": "uint256"
            },
            {
              "internalType": "uint256",
              "name": "duration",
              "type": "uint256"
            },
            {
              "internalType": "uint256",
              "name": "slicePeriodSeconds",
              "type": "uint256"
            },
            {
              "internalType": "uint256",
              "name": "invalidatingProposalId",
              "type": "uint256"
            },
            {
              "internalType": "uint256",
              "name": "amountTotal",
              "type": "uint256"
            },
            {
              "internalType": "uint256",
              "name": "withdrawn",
              "type": "uint256"
            },
            {
              "internalType": "contract ERC20",
              "name": "token",
              "type": "address"
            },
            {
              "internalType": "uint256",
              "name": "tokenId",
              "type": "uint256"
            }
          ],
          "internalType": "struct AuditPayment.VestingSchedule",
          "name": "",
          "type": "tuple"
        }
      ],
      "stateMutability": "view",
      "type": "function"
    },
    {
      "inputs": [
        {
          "internalType": "uint256",
          "name": "index",
          "type": "uint256"
        }
      ],
      "name": "getVestingIdAtIndex",
      "outputs": [
        {
          "internalType": "bytes32",
          "name": "",
          "type": "bytes32"
        }
      ],
      "stateMutability": "view",
      "type": "function"
    },
    {
      "inputs": [
        {
          "internalType": "bytes32",
          "name": "vestingScheduleId",
          "type": "bytes32"
        }
      ],
      "name": "getVestingSchedule",
      "outputs": [
        {
          "components": [
            {
              "internalType": "address",
              "name": "auditor",
              "type": "address"
            },
            {
              "internalType": "address",
              "name": "auditee",
              "type": "address"
            },
            {
              "internalType": "uint256",
              "name": "cliff",
              "type": "uint256"
            },
            {
              "internalType": "uint256",
              "name": "start",
              "type": "uint256"
            },
            {
              "internalType": "uint256",
              "name": "duration",
              "type": "uint256"
            },
            {
              "internalType": "uint256",
              "name": "slicePeriodSeconds",
              "type": "uint256"
            },
            {
              "internalType": "uint256",
              "name": "invalidatingProposalId",
              "type": "uint256"
            },
            {
              "internalType": "uint256",
              "name": "amountTotal",
              "type": "uint256"
            },
            {
              "internalType": "uint256",
              "name": "withdrawn",
              "type": "uint256"
            },
            {
              "internalType": "contract ERC20",
              "name": "token",
              "type": "address"
            },
            {
              "internalType": "uint256",
              "name": "tokenId",
              "type": "uint256"
            }
          ],
          "internalType": "struct AuditPayment.VestingSchedule",
          "name": "",
          "type": "tuple"
        }
      ],
      "stateMutability": "view",
      "type": "function"
    },
    {
      "inputs": [
        {
          "internalType": "address",
          "name": "holder",
          "type": "address"
        },
        {
          "internalType": "uint256",
          "name": "index",
          "type": "uint256"
        }
      ],
      "name": "getVestingScheduleByAddressAndIndex",
      "outputs": [
        {
          "components": [
            {
              "internalType": "address",
              "name": "auditor",
              "type": "address"
            },
            {
              "internalType": "address",
              "name": "auditee",
              "type": "address"
            },
            {
              "internalType": "uint256",
              "name": "cliff",
              "type": "uint256"
            },
            {
              "internalType": "uint256",
              "name": "start",
              "type": "uint256"
            },
            {
              "internalType": "uint256",
              "name": "duration",
              "type": "uint256"
            },
            {
              "internalType": "uint256",
              "name": "slicePeriodSeconds",
              "type": "uint256"
            },
            {
              "internalType": "uint256",
              "name": "invalidatingProposalId",
              "type": "uint256"
            },
            {
              "internalType": "uint256",
              "name": "amountTotal",
              "type": "uint256"
            },
            {
              "internalType": "uint256",
              "name": "withdrawn",
              "type": "uint256"
            },
            {
              "internalType": "contract ERC20",
              "name": "token",
              "type": "address"
            },
            {
              "internalType": "uint256",
              "name": "tokenId",
              "type": "uint256"
            }
          ],
          "internalType": "struct AuditPayment.VestingSchedule",
          "name": "",
          "type": "tuple"
        }
      ],
      "stateMutability": "view",
      "type": "function"
    },
    {
      "inputs": [],
      "name": "getVestingSchedulesCount",
      "outputs": [
        {
          "internalType": "uint256",
          "name": "",
          "type": "uint256"
        }
      ],
      "stateMutability": "view",
      "type": "function"
    },
    {
      "inputs": [
        {
          "internalType": "address",
          "name": "_beneficiary",
          "type": "address"
        }
      ],
      "name": "getVestingSchedulesCountByBeneficiary",
      "outputs": [
        {
          "internalType": "uint256",
          "name": "",
          "type": "uint256"
        }
      ],
      "stateMutability": "view",
      "type": "function"
    },
    {
      "inputs": [
        {
          "internalType": "address",
          "name": "",
          "type": "address"
        }
      ],
      "name": "holdersVestingCount",
      "outputs": [
        {
          "internalType": "uint256",
          "name": "",
          "type": "uint256"
        }
      ],
      "stateMutability": "view",
      "type": "function"
    },
    {
      "inputs": [
        {
          "internalType": "bytes32",
          "name": "vestingScheduleId",
          "type": "bytes32"
        }
      ],
      "name": "invalidateAudit",
      "outputs": [],
      "stateMutability": "nonpayable",
      "type": "function"
    },
    {
      "inputs": [
        {
          "internalType": "bytes32",
          "name": "vestingScheduleId",
          "type": "bytes32"
        }
      ],
      "name": "isWithdrawlPaused",
      "outputs": [
        {
          "internalType": "bool",
          "name": "",
          "type": "bool"
        }
      ],
      "stateMutability": "view",
      "type": "function"
    },
    {
      "inputs": [],
      "name": "owner",
      "outputs": [
        {
          "internalType": "address",
          "name": "",
          "type": "address"
        }
      ],
      "stateMutability": "view",
      "type": "function"
    },
    {
      "inputs": [
        {
          "internalType": "bytes32",
          "name": "vestingScheduleId",
          "type": "bytes32"
        },
        {
          "internalType": "string",
          "name": "calldata1",
          "type": "string"
        }
      ],
      "name": "proposeCancelVesting",
      "outputs": [],
      "stateMutability": "nonpayable",
      "type": "function"
    },
    {
      "inputs": [],
      "name": "renounceOwnership",
      "outputs": [],
      "stateMutability": "nonpayable",
      "type": "function"
    },
    {
      "inputs": [
        {
          "internalType": "bytes32",
          "name": "vestingScheduleId",
          "type": "bytes32"
        },
        {
          "internalType": "uint256",
          "name": "invalidatingProposalId",
          "type": "uint256"
        }
      ],
      "name": "setInvalidatingProposalId",
      "outputs": [],
      "stateMutability": "nonpayable",
      "type": "function"
    },
    {
      "inputs": [
        {
          "internalType": "address",
          "name": "newOwner",
          "type": "address"
        }
      ],
      "name": "transferOwnership",
      "outputs": [],
      "stateMutability": "nonpayable",
      "type": "function"
    },
    {
      "inputs": [
        {
          "internalType": "bytes32",
          "name": "",
          "type": "bytes32"
        }
      ],
      "name": "vestingSchedules",
      "outputs": [
        {
          "internalType": "address",
          "name": "auditor",
          "type": "address"
        },
        {
          "internalType": "address",
          "name": "auditee",
          "type": "address"
        },
        {
          "internalType": "uint256",
          "name": "cliff",
          "type": "uint256"
        },
        {
          "internalType": "uint256",
          "name": "start",
          "type": "uint256"
        },
        {
          "internalType": "uint256",
          "name": "duration",
          "type": "uint256"
        },
        {
          "internalType": "uint256",
          "name": "slicePeriodSeconds",
          "type": "uint256"
        },
        {
          "internalType": "uint256",
          "name": "invalidatingProposalId",
          "type": "uint256"
        },
        {
          "internalType": "uint256",
          "name": "amountTotal",
          "type": "uint256"
        },
        {
          "internalType": "uint256",
          "name": "withdrawn",
          "type": "uint256"
        },
        {
          "internalType": "contract ERC20",
          "name": "token",
          "type": "address"
        },
        {
          "internalType": "uint256",
          "name": "tokenId",
          "type": "uint256"
        }
      ],
      "stateMutability": "view",
      "type": "function"
    },
    {
      "inputs": [
        {
          "internalType": "uint256",
          "name": "",
          "type": "uint256"
        }
      ],
      "name": "vestingSchedulesIds",
      "outputs": [
        {
          "internalType": "bytes32",
          "name": "",
          "type": "bytes32"
        }
      ],
      "stateMutability": "view",
      "type": "function"
    },
    {
      "inputs": [
        {
          "internalType": "bytes32",
          "name": "vestingScheduleId",
          "type": "bytes32"
        }
      ],
      "name": "withdraw",
      "outputs": [],
      "stateMutability": "nonpayable",
      "type": "function"
    },
    {
      "stateMutability": "payable",
      "type": "receive"
    }
  ],
  "bytecode": "0x608034620000e757601f62001cb138819003918201601f19168301916001600160401b03831184841017620000ec578084926040948552833981010312620000e7576200005a6020620000528362000102565b920162000102565b60008054336001600160a01b031980831682178455604051959394909390926001600160a01b039283929183167f8be0079c531659141344cd1fd0a4f28419497f9722a3daafe3b4186f6b6457e08880a36001805516918215620000e35716928315620000e057508160065416176006556005541617600555611b999081620001188239f35b80fd5b8480fd5b600080fd5b634e487b7160e01b600052604160045260246000fd5b51906001600160a01b0382168203620000e75756fe608080604052600436101561001a575b50361561001857005b005b60003560e01c908163130836171461155a575080631ddc0ef0146115315780634162169f14611508578063471121d11461103457806352302e0f1461106e5780635a7bb69a146110345780635f777eea14610e1d5780636041788714610d75578063715018a614610d1c5780637e913dc614610c9e5780638815e86214610c755780638af104da14610c4e5780638da5cb5b14610c255780638e19899e146108bc5780639ef346b41461089d578063de72ad9514610875578063e22cae05146103ff578063e6e59642146103b0578063ea1bb3d51461037d578063f2fde38b146102b9578063f51321d7146101f3578063f7c469f0146101af5763f9079b3714610124573861000f565b346101aa5760203660031901126101aa5760043560025481101561015b5761014d602091611602565b90546040519160031b1c8152f35b60405162461bcd60e51b815260206004820152602160248201527f546f6b656e56657374696e673a20696e646578206f7574206f6620626f756e646044820152607360f81b6064820152608490fd5b600080fd5b346101aa5760203660031901126101aa5760206101eb6101cd611575565b6001600160a01b03811660009081526004845260409020549061196b565b604051908152f35b346101aa5760403660031901126101aa576102b561022c610227610215611575565b61021d6118fa565b506024359061196b565b61194d565b6040519182918291909161016081019260018060a01b0380825116835280602083015116602084015260408201516040840152606082015160608401526080820151608084015260a082015160a084015260c082015160c084015260e082015160e084015261010080830151908401526101209081830151169083015261014080910151910152565b0390f35b346101aa5760203660031901126101aa576102d2611575565b6102da61164f565b6001600160a01b0390811690811561032957600054826001600160601b0360a01b821617600055167f8be0079c531659141344cd1fd0a4f28419497f9722a3daafe3b4186f6b6457e0600080a3005b60405162461bcd60e51b815260206004820152602660248201527f4f776e61626c653a206e6577206f776e657220697320746865207a65726f206160448201526564647265737360d01b6064820152608490fd5b346101aa5760203660031901126101aa57600435600052600360205260206101eb6103ab60406000206116cc565b6119d0565b346101aa5760403660031901126101aa57600435600052600360205260406000206103f860068201916103e4835415611762565b600101546001600160a01b031633146117ca565b6024359055005b346101aa57610100806003193601126101aa5761041a611575565b6001600160a01b0360c435818116908190036101aa5761043861164f565b6040516323b872dd60e01b8152336004820152602494308683015260a4359260448481850152602095606494878187816000885af1801561083c57610848575b506040516370a0823160e01b815230600482015287818b81875afa801561083c57879160009161080b575b50106107905784359182156107445786156107045760843595600187106106ad5781359182851061065b5750508189169889600052600489526040600020546104eb9161196b565b968a35916104f990836116bf565b95604051976105078961158b565b8b89528a89019533875260408a0198895260608a0194855260808a0190815260a08a0191825260c08a01926000845260e08b019485528a0194600086526101208b019889526101408b019960e4358b528d8d600052600390528760406000209c511698888d6001600160601b0360a01b9b8c8254161781556001019151168a8254161790555160028c01555160038b01555160048a015551600589015551600688015551600787015551600886015560098501925116908254161790555190600a015560025468010000000000000000811015610646578060016105ee9201600255611602565b819291549060031b91821b91600019901b191617905581600052600481526040600020549160018301809311610631579060049160005252604060002055600080f35b83634e487b7160e01b60005260116004526000fd5b84634e487b7160e01b60005260416004526000fd5b661e9031b634b33360c91b6084927f546f6b656e56657374696e673a206475726174696f6e206d757374206265203e8c938f6027906040519662461bcd60e51b88526004880152860152840152820152fd5b6c206d757374206265203e3d203160981b89917f546f6b656e56657374696e673a20736c696365506572696f645365636f6e6473608494602d8f6040519662461bcd60e51b88526004880152860152840152820152fd5b897f546f6b656e56657374696e673a20616d6f756e74206d757374206265203e203087928a6040519362461bcd60e51b8552816004860152840152820152fd5b8761020360f41b877f546f6b656e56657374696e673a206475726174696f6e206d757374206265203e60849460228f6040519662461bcd60e51b88526004880152860152840152820152fd5b60405162461bcd60e51b815260048101889052604a818b01527f546f6b656e56657374696e673a2063616e6e6f74206372656174652076657374818401527f696e67207363686564756c652062656361757365206e6f7420737566666963698187015269656e7420746f6b656e7360b01b608482015260a490fd5b809250898092503d8311610835575b61082481836115e0565b810103126101aa578690518b6104a3565b503d61081a565b6040513d6000823e3d90fd5b61086790883d8a1161086e575b61085f81836115e0565b8101906116a7565b5089610478565b503d610855565b346101aa5760203660031901126101aa576020610893600435611895565b6040519015158152f35b346101aa5760203660031901126101aa576102b561022c60043561194d565b346101aa576020806003193601126101aa57600435600260015414610be0576002600155806000526003825260406000209060018060a01b038083541691823314826000541633148115610bd8575b5015610b6257600061091d8192611895565b6040519061092a826115c4565b601882527f49732077697468647261776c2066726f7a656e3f3a202573000000000000000088830152610993604051809261097d8b83019563c3b5563560e01b8752604060248501526064840190611855565b901515604483015203601f1981018352826115e0565b51906a636f6e736f6c652e6c6f675afa5080600654168460068501546024604051809481936310ce215360e31b835260048301525afa90811561083c57600091610b45575b50610ace57918391610a9b9360096109f26103ab856116cc565b93610a6460088201610a058782546116bf565b80915586604051610a15816115a8565b603681527f2573206973207769746864726177696e6720257320746f6b656e7320616e64208a820152751a185cc81dda5d1a191c985ddb88095cc81d1bdd185b60521b60408201523390611af4565b01541690600060405180968195829463a9059cbb60e01b84526004840160209093929193604081019460018060a01b031681520152565b03925af1801561083c57610ab0575b60018055005b81610ac692903d1061086e5761085f81836115e0565b508080610aaa565b60a4846040519062461bcd60e51b82526004820152604460248201527f5769746864726177696e67206973207061757365642064756520746f2070656e60448201527f64696e672070726f706f73616c2063616e6e6f7420776974686472617720746f6064820152636b656e7360e01b6084820152fd5b610b5c9150853d871161086e5761085f81836115e0565b856109d8565b60405162461bcd60e51b815260048101869052604260248201527f546f6b656e56657374696e673a206f6e6c792062656e6566696369617279206160448201527f6e64206f776e65722063616e2072656c656173652076657374656420746f6b656064820152616e7360f01b608482015260a490fd5b90508661090b565b60405162461bcd60e51b815260048101839052601f60248201527f5265656e7472616e637947756172643a207265656e7472616e742063616c6c006044820152606490fd5b346101aa5760003660031901126101aa576000546040516001600160a01b039091168152602090f35b346101aa5760403660031901126101aa5760206101eb610c6c611575565b6024359061196b565b346101aa5760203660031901126101aa576004356002548110156101aa5761014d602091611602565b346101aa5760203660031901126101aa57610cb7611575565b610cbf6118fa565b506001600160a01b0381166000908152600460205260409020546000198101908111610d0657610cee9161196b565b60005260036020526102b561022c60406000206116cc565b634e487b7160e01b600052601160045260246000fd5b346101aa5760003660031901126101aa57610d3561164f565b600080546001600160a01b0319811682556001600160a01b03167f8be0079c531659141344cd1fd0a4f28419497f9722a3daafe3b4186f6b6457e08280a3005b346101aa5760203660031901126101aa576004356000526003602052610160604060002060018060a01b0380825416918160018201541691600282015460038301546004840154600585015490600686015492600787015494600a60088901549760098a015416980154986040519a8b5260208b015260408a01526060890152608088015260a087015260c086015260e0850152610100840152610120830152610140820152f35b346101aa576020806003193601126101aa576006546001600160a01b0390811690338290036101aa5760043560005260038352604060002091836006840154602460405180948193633bc9018d60e21b835260048301525afa90811561083c57600091611017575b5015610fac578290610e996103ab846116cc565b9283610f1f575b610ef99350610eb86007820154600883015490611755565b9160018160098401541692015416600060405180968195829463a9059cbb60e01b84526004840160209093929193604081019460018060a01b031681520152565b03925af1801561083c57610f0957005b8161001892903d1061086e5761085f81836115e0565b91610f739360088401610f338282546116bf565b90558260098501541683855416600060405180988195829463a9059cbb60e01b84526004840160209093929193604081019460018060a01b031681520152565b03925af191821561083c57610ef9938593610f8f575b50610ea0565b610fa590843d861161086e5761085f81836115e0565b5085610f89565b60405162461bcd60e51b815260048101849052603c60248201527f43616e6e6f7420696e76616c69646174652076657374696e672073636865647560448201527f6c652069662070726f706f73616c206973206e6f7420706173736564000000006064820152608490fd5b61102e9150843d861161086e5761085f81836115e0565b84610e85565b346101aa5760203660031901126101aa576001600160a01b03611055611575565b1660005260046020526020604060002054604051908152f35b346101aa5760403660031901126101aa5760243567ffffffffffffffff8082116101aa57366023830112156101aa5781600401359081116114f257604051916110c1601f8301601f1916602001846115e0565b81835236602483830101116101aa5781600092602460209301838601378301015260043560005260036020526040600020611100600682015415611762565b61111760018060a01b0360018301541633146117ca565b6000806111916111a560405161112c816115a8565b602e81527f25732069732070726f706f73696e672076657374696e67207363686564756c6560208201526d1034b99031b0b731b2b63632b21760911b604082015260405192839163319af33360e01b6020840152604060248401526064830190611855565b30604483015203601f1981018352826115e0565b6020815191016a636f6e736f6c652e6c6f675afa50604051916111c7836115c4565b6001835260203681850137604051926111df846115c4565b6001845260203681860137604051916111f7836115c4565b6001835260005b602081106114df57503061121183611848565b52600061121d86611848565b5261122783611848565b5261123182611848565b50600080604051611241816115c4565b602081527f416c6c206f66207468652061626f7665207661726961626c657320776f726b6460208201526040516112a381611295602082019463104c13eb60e21b8652602060248401526044830190611855565b03601f1981018352826115e0565b51906a636f6e736f6c652e6c6f675afa5060018060a01b036006541691604051948592633eaf40f160e11b845260848401608060048601528151809152602060a4860192019060005b8181106114bd575050506003198482030160248501526020808351928381520192019060005b8181106114a457505050600319838203016044840152815180825260208201916020808360051b8301019401926000915b8383106114735786896020828b81600060608d631d591a5d60e21b60408583039260031984016064880152602481527f50726f706f73616c20746f2063616e63656c2076657374696e6720666f7220618a820152015201925af191821561083c5760009261143e575b60008084806006860155604051906113c3826115c4565b601c82527f496e76616c69646174696e672050726f706f73616c2049643a20257300000000602083015261142c60405180926114186020830195632d839cb360e21b8752604060248501526064840190611855565b90604483015203601f1981018352826115e0565b51906a636f6e736f6c652e6c6f675afa005b91506020823d60201161146b575b81611459602093836115e0565b810103126101aa5790519060066113ac565b3d915061144c565b919395509193602080611492600193601f198682030187528951611855565b97019301930190928895949293611343565b8251845288955060209384019390920191600101611312565b82516001600160a01b03168452899650602093840193909201916001016112ec565b60606020828601810191909152016111fe565b634e487b7160e01b600052604160045260246000fd5b346101aa5760003660031901126101aa576006546040516001600160a01b039091168152602090f35b346101aa5760003660031901126101aa576005546040516001600160a01b039091168152602090f35b346101aa5760003660031901126101aa576020906002548152f35b600435906001600160a01b03821682036101aa57565b610160810190811067ffffffffffffffff8211176114f257604052565b6060810190811067ffffffffffffffff8211176114f257604052565b6040810190811067ffffffffffffffff8211176114f257604052565b90601f8019910116810190811067ffffffffffffffff8211176114f257604052565b6002548110156116395760026000527f405787fa12a823e0f2b7631cc41b3ba8828b3321ca811111fa75cd3aa3bb5ace0190600090565b634e487b7160e01b600052603260045260246000fd5b6000546001600160a01b0316330361166357565b606460405162461bcd60e51b815260206004820152602060248201527f4f776e61626c653a2063616c6c6572206973206e6f7420746865206f776e65726044820152fd5b908160209103126101aa575180151581036101aa5790565b91908201809211610d0657565b906040516116d98161158b565b82546001600160a01b039081168252600184015481166020830152600284015460408301526003840154606083015260048401546080830152600584015460a0830152600684015460c0830152600784015460e08301526008840154610100830152600984015416610120820152600a90920154610140830152565b91908203918211610d0657565b1561176957565b60405162461bcd60e51b815260206004820152603360248201527f43616e6e6f7420736574207468652063616e63656c6c6174696f6e2070726f706044820152726f73616c206d6f7265207468616e206f6e636560681b6064820152608490fd5b156117d157565b60405162461bcd60e51b815260206004820152604360248201527f43616e6e6f742070726f706f736520746861742074686520617564697420697360448201527f20696e76616c696420696620796f7520617265206e6f7420746865206175646960648201526274656560e81b608482015260a490fd5b8051156116395760200190565b919082519283825260005b848110611881575050826000602080949584010152601f8019910116010190565b602081830181015184830182015201611860565b600052600360205260406000206020600660018060a01b038154169201546024604051809481936310ce215360e31b835260048301525afa90811561083c576000916118df575090565b6118f7915060203d811161086e5761085f81836115e0565b90565b604051906119078261158b565b816101406000918281528260208201528260408201528260608201528260808201528260a08201528260c08201528260e082015282610100820152826101208201520152565b6119556118fa565b5060005260036020526118f760406000206116cc565b906040519060208201926001600160601b03199060601b168352603482015260348152611997816115a8565b51902090565b81156119a7570490565b634e487b7160e01b600052601260045260246000fd5b81810292918115918404141715610d0657565b60408101514210156119e25750600090565b606081018051906119f960808401928351906116bf565b4210611aa957505060e08101610100815192019081519260405193608085019185831067ffffffffffffffff8411176114f2576118f795611aa093604052604981527f436f6d707574696e672072656c65617361626c6520616d6f756e74732061667460208201527f65722076657374696e6720706572696f642066726f6d20257320746f20257320604082015268257320746f6b656e7360b81b60608201523390611af4565b51905190611755565b611aeb6118f79392611ae3611ad9611ac5610100955142611755565b611ad460a0880151809261199d565b6119bd565b60e08601516119bd565b90519061199d565b91015190611755565b9092611b50600094938594604051938492611b286020850197637c7a8d8f60e11b89526080602487015260a4860190611855565b6001600160a01b0390931660448501526064840152608483015203601f1981018352826115e0565b51906a636f6e736f6c652e6c6f675afa5056fea2646970667358221220acc4f9d9a4820b0f488130c93d6ed9f02a4ee120f0989bad66157a804470ae5e64736f6c63430008140033",
  "linkReferences": {},
  "deployedLinkReferences": {}
}