{
  "_format": "hh-sol-artifact-1",
  "contractName": "Audit",
  "sourceName": "contracts/Audit.sol",
  "abi": [
    {
      "inputs": [],
      "stateMutability": "nonpayable",
      "type": "constructor"
    },
    {
      "anonymous": false,
      "inputs": [
        {
          "indexed": true,
          "internalType": "address",
          "name": "owner",
          "type": "address"
        },
        {
          "indexed": true,
          "internalType": "address",
          "name": "approved",
          "type": "address"
        },
        {
          "indexed": true,
          "internalType": "uint256",
          "name": "tokenId",
          "type": "uint256"
        }
      ],
      "name": "Approval",
      "type": "event"
    },
    {
      "anonymous": false,
      "inputs": [
        {
          "indexed": true,
          "internalType": "address",
          "name": "owner",
          "type": "address"
        },
        {
          "indexed": true,
          "internalType": "address",
          "name": "operator",
          "type": "address"
        },
        {
          "indexed": false,
          "internalType": "bool",
          "name": "approved",
          "type": "bool"
        }
      ],
      "name": "ApprovalForAll",
      "type": "event"
    },
    {
      "anonymous": false,
      "inputs": [
        {
          "indexed": true,
          "internalType": "address",
          "name": "previousOwner",
          "type": "address"
        },
        {
          "indexed": true,
          "internalType": "address",
          "name": "newOwner",
          "type": "address"
        }
      ],
      "name": "OwnershipTransferred",
      "type": "event"
    },
    {
      "anonymous": false,
      "inputs": [
        {
          "indexed": true,
          "internalType": "address",
          "name": "from",
          "type": "address"
        },
        {
          "indexed": true,
          "internalType": "address",
          "name": "to",
          "type": "address"
        },
        {
          "indexed": true,
          "internalType": "uint256",
          "name": "tokenId",
          "type": "uint256"
        }
      ],
      "name": "Transfer",
      "type": "event"
    },
    {
      "inputs": [
        {
          "internalType": "address",
          "name": "to",
          "type": "address"
        },
        {
          "internalType": "uint256",
          "name": "tokenId",
          "type": "uint256"
        }
      ],
      "name": "approve",
      "outputs": [],
      "stateMutability": "nonpayable",
      "type": "function"
    },
    {
      "inputs": [
        {
          "internalType": "uint256",
          "name": "",
          "type": "uint256"
        }
      ],
      "name": "auditRevealed",
      "outputs": [
        {
          "internalType": "bool",
          "name": "",
          "type": "bool"
        }
      ],
      "stateMutability": "view",
      "type": "function"
    },
    {
      "inputs": [
        {
          "internalType": "address",
          "name": "owner",
          "type": "address"
        }
      ],
      "name": "balanceOf",
      "outputs": [
        {
          "internalType": "uint256",
          "name": "",
          "type": "uint256"
        }
      ],
      "stateMutability": "view",
      "type": "function"
    },
    {
      "inputs": [
        {
          "internalType": "string",
          "name": "base",
          "type": "string"
        },
        {
          "internalType": "uint256",
          "name": "salt",
          "type": "uint256"
        }
      ],
      "name": "generateProof",
      "outputs": [
        {
          "internalType": "uint256",
          "name": "",
          "type": "uint256"
        }
      ],
      "stateMutability": "pure",
      "type": "function"
    },
    {
      "inputs": [
        {
          "internalType": "uint256",
          "name": "tokenId",
          "type": "uint256"
        }
      ],
      "name": "getApproved",
      "outputs": [
        {
          "internalType": "address",
          "name": "",
          "type": "address"
        }
      ],
      "stateMutability": "view",
      "type": "function"
    },
    {
      "inputs": [],
      "name": "getTrustedForwarder",
      "outputs": [
        {
          "internalType": "address",
          "name": "forwarder",
          "type": "address"
        }
      ],
      "stateMutability": "view",
      "type": "function"
    },
    {
      "inputs": [
        {
          "internalType": "address",
          "name": "owner",
          "type": "address"
        },
        {
          "internalType": "address",
          "name": "operator",
          "type": "address"
        }
      ],
      "name": "isApprovedForAll",
      "outputs": [
        {
          "internalType": "bool",
          "name": "",
          "type": "bool"
        }
      ],
      "stateMutability": "view",
      "type": "function"
    },
    {
      "inputs": [
        {
          "internalType": "address",
          "name": "forwarder",
          "type": "address"
        }
      ],
      "name": "isTrustedForwarder",
      "outputs": [
        {
          "internalType": "bool",
          "name": "",
          "type": "bool"
        }
      ],
      "stateMutability": "view",
      "type": "function"
    },
    {
      "inputs": [],
      "name": "maxTokensPerWallet",
      "outputs": [
        {
          "internalType": "uint256",
          "name": "",
          "type": "uint256"
        }
      ],
      "stateMutability": "view",
      "type": "function"
    },
    {
      "inputs": [
        {
          "internalType": "address",
          "name": "_to",
          "type": "address"
        }
      ],
      "name": "mint",
      "outputs": [],
      "stateMutability": "nonpayable",
      "type": "function"
    },
    {
      "inputs": [],
      "name": "name",
      "outputs": [
        {
          "internalType": "string",
          "name": "",
          "type": "string"
        }
      ],
      "stateMutability": "view",
      "type": "function"
    },
    {
      "inputs": [],
      "name": "owner",
      "outputs": [
        {
          "internalType": "address",
          "name": "",
          "type": "address"
        }
      ],
      "stateMutability": "view",
      "type": "function"
    },
    {
      "inputs": [
        {
          "internalType": "uint256",
          "name": "tokenId",
          "type": "uint256"
        }
      ],
      "name": "ownerOf",
      "outputs": [
        {
          "internalType": "address",
          "name": "",
          "type": "address"
        }
      ],
      "stateMutability": "view",
      "type": "function"
    },
    {
      "inputs": [],
      "name": "renounceOwnership",
      "outputs": [],
      "stateMutability": "nonpayable",
      "type": "function"
    },
    {
      "inputs": [
        {
          "internalType": "address",
          "name": "from",
          "type": "address"
        },
        {
          "internalType": "address",
          "name": "to",
          "type": "address"
        },
        {
          "internalType": "uint256",
          "name": "tokenId",
          "type": "uint256"
        }
      ],
      "name": "safeTransferFrom",
      "outputs": [],
      "stateMutability": "nonpayable",
      "type": "function"
    },
    {
      "inputs": [
        {
          "internalType": "address",
          "name": "from",
          "type": "address"
        },
        {
          "internalType": "address",
          "name": "to",
          "type": "address"
        },
        {
          "internalType": "uint256",
          "name": "tokenId",
          "type": "uint256"
        },
        {
          "internalType": "bytes",
          "name": "data",
          "type": "bytes"
        }
      ],
      "name": "safeTransferFrom",
      "outputs": [],
      "stateMutability": "nonpayable",
      "type": "function"
    },
    {
      "inputs": [
        {
          "internalType": "address",
          "name": "operator",
          "type": "address"
        },
        {
          "internalType": "bool",
          "name": "approved",
          "type": "bool"
        }
      ],
      "name": "setApprovalForAll",
      "outputs": [],
      "stateMutability": "nonpayable",
      "type": "function"
    },
    {
      "inputs": [
        {
          "internalType": "bytes4",
          "name": "interfaceId",
          "type": "bytes4"
        }
      ],
      "name": "supportsInterface",
      "outputs": [
        {
          "internalType": "bool",
          "name": "",
          "type": "bool"
        }
      ],
      "stateMutability": "view",
      "type": "function"
    },
    {
      "inputs": [],
      "name": "symbol",
      "outputs": [
        {
          "internalType": "string",
          "name": "",
          "type": "string"
        }
      ],
      "stateMutability": "view",
      "type": "function"
    },
    {
      "inputs": [
        {
          "internalType": "uint256",
          "name": "index",
          "type": "uint256"
        }
      ],
      "name": "tokenByIndex",
      "outputs": [
        {
          "internalType": "uint256",
          "name": "",
          "type": "uint256"
        }
      ],
      "stateMutability": "view",
      "type": "function"
    },
    {
      "inputs": [
        {
          "internalType": "address",
          "name": "owner",
          "type": "address"
        },
        {
          "internalType": "uint256",
          "name": "index",
          "type": "uint256"
        }
      ],
      "name": "tokenOfOwnerByIndex",
      "outputs": [
        {
          "internalType": "uint256",
          "name": "",
          "type": "uint256"
        }
      ],
      "stateMutability": "view",
      "type": "function"
    },
    {
      "inputs": [
        {
          "internalType": "uint256",
          "name": "tokenId",
          "type": "uint256"
        }
      ],
      "name": "tokenURI",
      "outputs": [
        {
          "internalType": "string",
          "name": "",
          "type": "string"
        }
      ],
      "stateMutability": "view",
      "type": "function"
    },
    {
      "inputs": [],
      "name": "totalSupply",
      "outputs": [
        {
          "internalType": "uint256",
          "name": "",
          "type": "uint256"
        }
      ],
      "stateMutability": "view",
      "type": "function"
    },
    {
      "inputs": [
        {
          "internalType": "address",
          "name": "from",
          "type": "address"
        },
        {
          "internalType": "address",
          "name": "to",
          "type": "address"
        },
        {
          "internalType": "uint256",
          "name": "tokenId",
          "type": "uint256"
        }
      ],
      "name": "transferFrom",
      "outputs": [],
      "stateMutability": "nonpayable",
      "type": "function"
    },
    {
      "inputs": [
        {
          "internalType": "address",
          "name": "newOwner",
          "type": "address"
        }
      ],
      "name": "transferOwnership",
      "outputs": [],
      "stateMutability": "nonpayable",
      "type": "function"
    },
    {
      "inputs": [
        {
          "internalType": "address",
          "name": "from",
          "type": "address"
        },
        {
          "internalType": "address",
          "name": "to",
          "type": "address"
        },
        {
          "internalType": "uint256",
          "name": "tokenId",
          "type": "uint256"
        }
      ],
      "name": "trustlessHandoff",
      "outputs": [],
      "stateMutability": "nonpayable",
      "type": "function"
    },
    {
      "inputs": [
        {
          "internalType": "uint256",
          "name": "tokenId",
          "type": "uint256"
        },
        {
          "internalType": "string",
          "name": "base",
          "type": "string"
        },
        {
          "internalType": "uint256",
          "name": "salt",
          "type": "uint256"
        }
      ],
      "name": "verifyProof",
      "outputs": [
        {
          "internalType": "bool",
          "name": "",
          "type": "bool"
        }
      ],
      "stateMutability": "pure",
      "type": "function"
    }
  ],
  "bytecode": "0x608034620003ae576001600160401b03906040908082018381118282101762000398578252601581526020907f4265766f72417564697444656c6976657261626c650000000000000000000000828201528251938385018581108282111762000398578452600385526210905160ea1b83860152815181811162000398576000938454916001948584811c941680156200038d575b8385101462000379578190601f9485811162000326575b508390858311600114620002c2578892620002b6575b5050600019600383901b1c191690851b1785555b8651928311620002a25783548481811c9116801562000297575b8282101462000283578281116200023b575b5080918311600114620001d4575083949582939492620001c8575b5050600019600383901b1c191690821b1790555b601436101580620001b3575b15620001ab5736601319013560601c915b600a80546001600160a01b039485166001600160a01b0319821681179092559151939091167f8be0079c531659141344cd1fd0a4f28419497f9722a3daafe3b4186f6b6457e08380a36064600d55600e5561199d9081620003b48239f35b33916200014d565b50600b546001600160a01b031633146200013c565b0151905038806200011c565b90601f198316968486528286209286905b8982106200022357505083859697981062000209575b505050811b01905562000130565b015160001960f88460031b161c19169055388080620001fb565b808785968294968601518155019501930190620001e5565b8486528186208380860160051c82019284871062000279575b0160051c019085905b8281106200026d57505062000101565b8781550185906200025d565b9250819262000254565b634e487b7160e01b86526022600452602486fd5b90607f1690620000ef565b634e487b7160e01b85526041600452602485fd5b015190503880620000c1565b8880528489208894509190601f1984168a5b878282106200030f5750508411620002f5575b505050811b018555620000d5565b015160001960f88460031b161c19169055388080620002e7565b8385015186558b97909501949384019301620002d4565b9091508780528388208580850160051c8201928686106200036f575b918991869594930160051c01915b82811062000360575050620000ab565b8a815585945089910162000350565b9250819262000342565b634e487b7160e01b87526022600452602487fd5b93607f169362000094565b634e487b7160e01b600052604160045260246000fd5b600080fdfe6080604081815260048036101561001557600080fd5b600092833560e01c90816301ffc9a714610f125750806306fdde0314610e47578063081812fc14610e27578063095ea7b314610ca6578063157a772e14610c5b57806318160ddd14610c3c57806323b872dd14610c1a5780632602af6914610bda5780632f745c5914610b2e57806342842e0e14610b05578063469132ce14610ae65780634f6ccce714610a53578063572b6c0514610a1f5780636352211e146109ee5780636a6278421461083557806370a0823114610808578063715018a6146107ab5780638da5cb5b1461078257806395d89b4114610678578063a22cb465146105a4578063aa7344181461055b578063b88d4fde146104f3578063c87b56dd146102c1578063ce1b815f14610298578063e985e9c514610246578063f2ef29351461021a5763f2fde38b1461014c57600080fd5b3461021657602036600319011261021657610165610fe0565b9061016e611127565b6001600160a01b039182169283156101c4575050600a54826bffffffffffffffffffffffff60a01b821617600a55167f8be0079c531659141344cd1fd0a4f28419497f9722a3daafe3b4186f6b6457e08380a380f35b906020608492519162461bcd60e51b8352820152602660248201527f4f776e61626c653a206e6577206f776e657220697320746865207a65726f206160448201526564647265737360d01b6064820152fd5b8280fd5b5034610216576020366003190112610216578160209360ff92358152600f855220541690519015158152f35b50503461029457806003193601126102945760ff81602093610266610fe0565b61026e610ffb565b6001600160a01b0391821683526005875283832091168252855220549151911615158152f35b5080fd5b505034610294578160031936011261029457600b5490516001600160a01b039091168152602090f35b503461021657602090816003193601126104ef5781929381356103016102fc82600052600260205260018060a01b0360406000205416151590565b611201565b61030a816118b2565b8051909390156104d35781829184937a184f03e93ff9f4daa797ed6e38ed64bf6a1f01000000000000000090818110156104c6575b5050866d04ee2d6d415b85acef8100000000808510156104b8575b5050662386f26fc10000808410156104a9575b506305f5e1008084101561049a575b506127108084101561048c575b5050606482101561047c575b600a80921015610472575b6021908893600192816103cd858094016103c56103bc82611081565b9951998a61105f565b808952611081565b878b019890601f1901368a3750860101905b61043c575b505050509261041b9261042792610438958851958361040c8895518092888089019101610f98565b84019151809386840190610f98565b0103808452018261105f565b925b51928284938452830190610fbb565b0390f35b600019019083906f181899199a1a9b1b9c1cb0b131b232b360811b8282061a83530491821561046d579190826103df565b6103e4565b91600101916103a0565b9190606460029104910191610395565b930192909104903880610389565b6008919493049201923861037c565b6010919493049201923861036d565b94019390920491863861035a565b8a9550049250388061033f565b50508451610438935091506104e782611011565b815292610429565b8380fd5b8382346102945760803660031901126102945761050e610fe0565b610516610ffb565b9060643567ffffffffffffffff81116105575736602382011215610557576105549381602461054a9336930135910161109d565b9160443591611310565b80f35b8480fd5b505034610294576105549061056f366110f2565b808652600f602052928520805460ff191660011790559061059f61059a84610595611832565b6113ad565b6112ae565b611475565b50346102165781600319360112610216576105bd610fe0565b9160243590811515809203610557576105d4611832565b6001600160a01b0394851694169283851461063657507f17307eab39ab6107e8899845ad3d59bd9653f200f220920489ca2b5937696c319160209184875260058352808720868852835280872060ff1981541660ff841617905551908152a380f35b6020606492519162461bcd60e51b8352820152601960248201527f4552433732313a20617070726f766520746f2063616c6c6572000000000000006044820152fd5b50913461077f578060031936011261077f578151918160019283549384811c91818616958615610775575b6020968785108114610762578899509688969785829a52918260001461073b5750506001146106e0575b505050610438929161042991038561105f565b91908693508083527fb10e2d527612073b26eecdfd717e6a320cf44b4afac2b0732d9fcbe2b7fa0cf65b82841061072357505050820101816104296104386106cd565b8054848a01860152889550879490930192810161070a565b60ff19168782015293151560051b86019093019350849250610429915061043890506106cd565b634e487b7160e01b835260228a52602483fd5b92607f16926106a3565b80fd5b505034610294578160031936011261029457600a5490516001600160a01b039091168152602090f35b833461077f578060031936011261077f576107c4611127565b600a80546001600160a01b0319811690915581906001600160a01b03167f8be0079c531659141344cd1fd0a4f28419497f9722a3daafe3b4186f6b6457e08280a380f35b5050346102945760203660031901126102945760209061082e610829610fe0565b61118a565b9051908152f35b503461021657602091826003193601126104ef57610851610fe0565b9261085a611127565b600e5493600185018095116109db57600e8590556001600160a01b03811693841561099a576000868152600260205260409020546108a4906001600160a01b031615155b15611866565b60085490868852600984528185892055600160401b821015610987575060029291610829876108dc8460016108f596016008556117e5565b90919082549060031b91821b91600019901b1916179055565b8487526006825283872081885282528387208690558587526007825283872055600085815260026020526040902054610938906001600160a01b0316151561089e565b838652600381528286208054600101905584865252832080546001600160a01b03191682179055827fddf252ad1be2c89b69c2b068fc378daa952ba7f163c4a11628f55a4df523b3ef8180a480f35b634e487b7160e01b885260419052602487fd5b606490838086519262461bcd60e51b845283015260248201527f4552433732313a206d696e7420746f20746865207a65726f20616464726573736044820152fd5b634e487b7160e01b865260118452602486fd5b50913461077f57602036600319011261077f5750610a0e6020923561124d565b90516001600160a01b039091168152f35b50503461029457602036600319011261029457602090610a3d610fe0565b60018060a01b0380600b54169116149051908152f35b50823461077f57602036600319011261077f5750803590600854821015610a8e57602083610a80846117e5565b91905490519160031b1c8152f35b608490602084519162461bcd60e51b8352820152602c60248201527f455243373231456e756d657261626c653a20676c6f62616c20696e646578206f60448201526b7574206f6620626f756e647360a01b6064820152fd5b505034610294578160031936011261029457602090600d549051908152f35b5050346102945761055490610b19366110f2565b91925192610b2684611011565b858452611310565b50913461077f578160031936011261077f57610b48610fe0565b60243590610b558161118a565b821015610b83576001600160a01b031682526006602090815283832091835290815290829020548251908152f35b835162461bcd60e51b8152602081870152602b60248201527f455243373231456e756d657261626c653a206f776e657220696e646578206f7560448201526a74206f6620626f756e647360a81b6064820152608490fd5b50913461077f578160031936011261077f5782359067ffffffffffffffff821161077f5750610c1160209361082e923691016110d4565b6024359061192c565b833461077f57610554610c2c366110f2565b9161059f61059a84610595611832565b5050346102945781600319360112610294576020906008549051908152f35b5034610216576060366003190112610216576024359267ffffffffffffffff841161077f5750610c9c610c93602094369084016110d4565b6044359061192c565b9035149051908152f35b5034610216578160031936011261021657610cbf610fe0565b6024359290916001600160a01b0391908280610cda8761124d565b16941693808514610dda578084610cef611832565b1614908115610db0575b5015610d4857848652602052842080546001600160a01b03191683179055610d208361124d565b167f8c5be1e5ebec7d5bd14f71427d1e84f3dd0314c0f7b2291e5b200ac8c7c3b9258480a480f35b6020608492519162461bcd60e51b8352820152603d60248201527f4552433732313a20617070726f76652063616c6c6572206973206e6f7420746f60448201527f6b656e206f776e6572206f7220617070726f76656420666f7220616c6c0000006064820152fd5b9050610dba611832565b9087526005602052838388209116875260205260ff828720541638610cf9565b506020608492519162461bcd60e51b8352820152602160248201527f4552433732313a20617070726f76616c20746f2063757272656e74206f776e656044820152603960f91b6064820152fd5b50913461077f57602036600319011261077f5750610a0e60209235611270565b50913461077f578060031936011261077f5781519181825492600184811c91818616958615610f08575b6020968785108114610762578899509688969785829a52918260001461073b575050600114610ead57505050610438929161042991038561105f565b91908693508280527f290decd9548b62a8d60345a988386fc84ba6bc95484008f6362f93160ef3e5635b828410610ef057505050820101816104296104386106cd565b8054848a018601528895508794909301928101610ed7565b92607f1692610e71565b92505034610216576020366003190112610216573563ffffffff60e01b8116809103610216576020925063780e9d6360e01b8114908115610f55575b5015158152f35b6380ac58cd60e01b811491508115610f87575b8115610f76575b5038610f4e565b6301ffc9a760e01b14905038610f6f565b635b5e139f60e01b81149150610f68565b60005b838110610fab5750506000910152565b8181015183820152602001610f9b565b90602091610fd481518092818552858086019101610f98565b601f01601f1916010190565b600435906001600160a01b0382168203610ff657565b600080fd5b602435906001600160a01b0382168203610ff657565b6020810190811067ffffffffffffffff82111761102d57604052565b634e487b7160e01b600052604160045260246000fd5b6040810190811067ffffffffffffffff82111761102d57604052565b90601f8019910116810190811067ffffffffffffffff82111761102d57604052565b67ffffffffffffffff811161102d57601f01601f191660200190565b9291926110a982611081565b916110b7604051938461105f565b829481845281830111610ff6578281602093846000960137010152565b9080601f83011215610ff6578160206110ef9335910161109d565b90565b6060906003190112610ff6576001600160a01b03906004358281168103610ff657916024359081168103610ff6579060443590565b600a546001600160a01b039081169061113e611832565b160361114657565b606460405162461bcd60e51b815260206004820152602060248201527f4f776e61626c653a2063616c6c6572206973206e6f7420746865206f776e65726044820152fd5b6001600160a01b031680156111aa57600052600360205260406000205490565b60405162461bcd60e51b815260206004820152602960248201527f4552433732313a2061646472657373207a65726f206973206e6f7420612076616044820152683634b21037bbb732b960b91b6064820152608490fd5b1561120857565b60405162461bcd60e51b815260206004820152601860248201527f4552433732313a20696e76616c696420746f6b656e20494400000000000000006044820152606490fd5b6000908152600260205260409020546001600160a01b03166110ef811515611201565b600081815260026020526040902054611293906001600160a01b03161515611201565b6000908152600460205260409020546001600160a01b031690565b156112b557565b60405162461bcd60e51b815260206004820152602d60248201527f4552433732313a2063616c6c6572206973206e6f7420746f6b656e206f776e6560448201526c1c881bdc88185c1c1c9bdd9959609a1b6064820152608490fd5b9061133693929161132661059a84610595611832565b611331838383611475565b6116bc565b1561133d57565b60405162461bcd60e51b8152806113566004820161135a565b0390fd5b60809060208152603260208201527f4552433732313a207472616e7366657220746f206e6f6e20455243373231526560408201527131b2b4bb32b91034b6b83632b6b2b73a32b960711b60608201520190565b906001600160a01b0380806113c18461124d565b169316918383149384156113f4575b5083156113de575b50505090565b6113ea91929350611270565b16143880806113d8565b909350600052600560205260406000208260005260205260ff6040600020541692386113d0565b1561142257565b60405162461bcd60e51b815260206004820152602560248201527f4552433732313a207472616e736665722066726f6d20696e636f72726563742060448201526437bbb732b960d91b6064820152608490fd5b611499916114828461124d565b6001600160a01b039384841693918516841461141b565b83821693841561166b578391826115b2575090506008549085600052600960205281604060002055600160401b82101561102d576114ff926114e6876108dc8560018997016008556117e5565b82860361157f575b506114f88661124d565b161461141b565b7fddf252ad1be2c89b69c2b068fc378daa952ba7f163c4a11628f55a4df523b3ef60008481526004602052604081206bffffffffffffffffffffffff60a01b9081815416905583825260036020526040822060001981540190558482526040822060018154019055858252600260205284604083209182541617905580a4565b6115889061118a565b604060008781526006602052818120838252602052888282205588815260076020522055386114ee565b8583036115c4575b506114ff926114e6565b6115cf91925061118a565b600019810191908211611655576114ff928492600090888252602090600782526040918284205482810361161e575b508a845283838120558684526006815282842091845252812055926115ba565b87855260068252838520838652825283852054888652600683528486208287528352808587205585526007825283852055386115fe565b634e487b7160e01b600052601160045260246000fd5b60405162461bcd60e51b8152602060048201526024808201527f4552433732313a207472616e7366657220746f20746865207a65726f206164646044820152637265737360e01b6064820152608490fd5b92939190803b156117db5761171a946116d3611832565b92604051928391630a85bd0160e11b9586845260018060a01b039889809216600486015216602484015260448301526080606483015281806020998a956084830190610fbb565b03916000988991165af184918161179b575b5061178a575050503d600014611782573d61174681611081565b90611754604051928361105f565b81528091833d92013e5b8051918261177f5760405162461bcd60e51b8152806113566004820161135a565b01fd5b50606061175e565b6001600160e01b0319161492509050565b9091508581813d83116117d4575b6117b3818361105f565b8101031261055757516001600160e01b03198116810361055757903861172c565b503d6117a9565b5050915050600190565b60085481101561181c5760086000527ff3f7a9fe364faab93b216da50a3214154f22a0a2b415b23a84c8169e8b636ee30190600090565b634e487b7160e01b600052603260045260246000fd5b601436101580611852575b1561184e5736601319013560601c90565b3390565b50600b546001600160a01b0316331461183d565b1561186d57565b60405162461bcd60e51b815260206004820152601c60248201527f4552433732313a20746f6b656e20616c7265616479206d696e746564000000006044820152606490fd5b600052600f60205260ff604060002054166000146118fb576040516118d681611043565b601581527468747470733a2f2f697066732e696f2f697066732f60581b602082015290565b60405161190781611043565b601581527468747470733a2f2f6170692e6265766f722e696f2f60581b602082015290565b90611961604080518093602061194b8184019788815193849201610f98565b820190602082015203602081018452018261105f565b5190209056fea264697066735822122070217bac0c50cb68fcc03b62417f433fef2b0862bc7eb4ca95dab6afe4ae44a764736f6c63430008140033",
  "linkReferences": {},
  "deployedLinkReferences": {}
}