{
  "_format": "hh-sol-artifact-1",
  "contractName": "BevorDAO",
  "sourceName": "contracts/BevorDAO.sol",
  "abi": [
    {
      "inputs": [
        {
          "internalType": "contract IVotes",
          "name": "_token",
          "type": "address"
        },
        {
          "internalType": "contract TimelockController",
          "name": "_timelock",
          "type": "address"
        }
      ],
      "stateMutability": "nonpayable",
      "type": "constructor"
    },
    {
      "inputs": [],
      "name": "Empty",
      "type": "error"
    },
    {
      "inputs": [],
      "name": "InvalidShortString",
      "type": "error"
    },
    {
      "inputs": [
        {
          "internalType": "string",
          "name": "str",
          "type": "string"
        }
      ],
      "name": "StringTooLong",
      "type": "error"
    },
    {
      "anonymous": false,
      "inputs": [],
      "name": "EIP712DomainChanged",
      "type": "event"
    },
    {
      "anonymous": false,
      "inputs": [
        {
          "indexed": false,
          "internalType": "uint256",
          "name": "proposalId",
          "type": "uint256"
        }
      ],
      "name": "ProposalCanceled",
      "type": "event"
    },
    {
      "anonymous": false,
      "inputs": [
        {
          "indexed": false,
          "internalType": "uint256",
          "name": "proposalId",
          "type": "uint256"
        },
        {
          "indexed": false,
          "internalType": "address",
          "name": "proposer",
          "type": "address"
        },
        {
          "indexed": false,
          "internalType": "address[]",
          "name": "targets",
          "type": "address[]"
        },
        {
          "indexed": false,
          "internalType": "uint256[]",
          "name": "values",
          "type": "uint256[]"
        },
        {
          "indexed": false,
          "internalType": "string[]",
          "name": "signatures",
          "type": "string[]"
        },
        {
          "indexed": false,
          "internalType": "bytes[]",
          "name": "calldatas",
          "type": "bytes[]"
        },
        {
          "indexed": false,
          "internalType": "uint256",
          "name": "voteStart",
          "type": "uint256"
        },
        {
          "indexed": false,
          "internalType": "uint256",
          "name": "voteEnd",
          "type": "uint256"
        },
        {
          "indexed": false,
          "internalType": "string",
          "name": "description",
          "type": "string"
        }
      ],
      "name": "ProposalCreated",
      "type": "event"
    },
    {
      "anonymous": false,
      "inputs": [
        {
          "indexed": false,
          "internalType": "uint256",
          "name": "proposalId",
          "type": "uint256"
        }
      ],
      "name": "ProposalExecuted",
      "type": "event"
    },
    {
      "anonymous": false,
      "inputs": [
        {
          "indexed": false,
          "internalType": "uint256",
          "name": "proposalId",
          "type": "uint256"
        },
        {
          "indexed": false,
          "internalType": "uint256",
          "name": "eta",
          "type": "uint256"
        }
      ],
      "name": "ProposalQueued",
      "type": "event"
    },
    {
      "anonymous": false,
      "inputs": [
        {
          "indexed": false,
          "internalType": "uint256",
          "name": "oldProposalThreshold",
          "type": "uint256"
        },
        {
          "indexed": false,
          "internalType": "uint256",
          "name": "newProposalThreshold",
          "type": "uint256"
        }
      ],
      "name": "ProposalThresholdSet",
      "type": "event"
    },
    {
      "anonymous": false,
      "inputs": [
        {
          "indexed": false,
          "internalType": "uint256",
          "name": "oldQuorumNumerator",
          "type": "uint256"
        },
        {
          "indexed": false,
          "internalType": "uint256",
          "name": "newQuorumNumerator",
          "type": "uint256"
        }
      ],
      "name": "QuorumNumeratorUpdated",
      "type": "event"
    },
    {
      "anonymous": false,
      "inputs": [
        {
          "indexed": false,
          "internalType": "address",
          "name": "oldTimelock",
          "type": "address"
        },
        {
          "indexed": false,
          "internalType": "address",
          "name": "newTimelock",
          "type": "address"
        }
      ],
      "name": "TimelockChange",
      "type": "event"
    },
    {
      "anonymous": false,
      "inputs": [
        {
          "indexed": true,
          "internalType": "address",
          "name": "voter",
          "type": "address"
        },
        {
          "indexed": false,
          "internalType": "uint256",
          "name": "proposalId",
          "type": "uint256"
        },
        {
          "indexed": false,
          "internalType": "uint8",
          "name": "support",
          "type": "uint8"
        },
        {
          "indexed": false,
          "internalType": "uint256",
          "name": "weight",
          "type": "uint256"
        },
        {
          "indexed": false,
          "internalType": "string",
          "name": "reason",
          "type": "string"
        }
      ],
      "name": "VoteCast",
      "type": "event"
    },
    {
      "anonymous": false,
      "inputs": [
        {
          "indexed": true,
          "internalType": "address",
          "name": "voter",
          "type": "address"
        },
        {
          "indexed": false,
          "internalType": "uint256",
          "name": "proposalId",
          "type": "uint256"
        },
        {
          "indexed": false,
          "internalType": "uint8",
          "name": "support",
          "type": "uint8"
        },
        {
          "indexed": false,
          "internalType": "uint256",
          "name": "weight",
          "type": "uint256"
        },
        {
          "indexed": false,
          "internalType": "string",
          "name": "reason",
          "type": "string"
        },
        {
          "indexed": false,
          "internalType": "bytes",
          "name": "params",
          "type": "bytes"
        }
      ],
      "name": "VoteCastWithParams",
      "type": "event"
    },
    {
      "anonymous": false,
      "inputs": [
        {
          "indexed": false,
          "internalType": "uint256",
          "name": "oldVotingDelay",
          "type": "uint256"
        },
        {
          "indexed": false,
          "internalType": "uint256",
          "name": "newVotingDelay",
          "type": "uint256"
        }
      ],
      "name": "VotingDelaySet",
      "type": "event"
    },
    {
      "anonymous": false,
      "inputs": [
        {
          "indexed": false,
          "internalType": "uint256",
          "name": "oldVotingPeriod",
          "type": "uint256"
        },
        {
          "indexed": false,
          "internalType": "uint256",
          "name": "newVotingPeriod",
          "type": "uint256"
        }
      ],
      "name": "VotingPeriodSet",
      "type": "event"
    },
    {
      "inputs": [],
      "name": "BALLOT_TYPEHASH",
      "outputs": [
        {
          "internalType": "bytes32",
          "name": "",
          "type": "bytes32"
        }
      ],
      "stateMutability": "view",
      "type": "function"
    },
    {
      "inputs": [],
      "name": "CLOCK_MODE",
      "outputs": [
        {
          "internalType": "string",
          "name": "",
          "type": "string"
        }
      ],
      "stateMutability": "view",
      "type": "function"
    },
    {
      "inputs": [],
      "name": "COUNTING_MODE",
      "outputs": [
        {
          "internalType": "string",
          "name": "",
          "type": "string"
        }
      ],
      "stateMutability": "pure",
      "type": "function"
    },
    {
      "inputs": [],
      "name": "EXTENDED_BALLOT_TYPEHASH",
      "outputs": [
        {
          "internalType": "bytes32",
          "name": "",
          "type": "bytes32"
        }
      ],
      "stateMutability": "view",
      "type": "function"
    },
    {
      "inputs": [
        {
          "internalType": "address[]",
          "name": "targets",
          "type": "address[]"
        },
        {
          "internalType": "uint256[]",
          "name": "values",
          "type": "uint256[]"
        },
        {
          "internalType": "bytes[]",
          "name": "calldatas",
          "type": "bytes[]"
        },
        {
          "internalType": "bytes32",
          "name": "descriptionHash",
          "type": "bytes32"
        }
      ],
      "name": "cancel",
      "outputs": [
        {
          "internalType": "uint256",
          "name": "",
          "type": "uint256"
        }
      ],
      "stateMutability": "nonpayable",
      "type": "function"
    },
    {
      "inputs": [
        {
          "internalType": "uint256",
          "name": "proposalId",
          "type": "uint256"
        },
        {
          "internalType": "uint8",
          "name": "support",
          "type": "uint8"
        }
      ],
      "name": "castVote",
      "outputs": [
        {
          "internalType": "uint256",
          "name": "",
          "type": "uint256"
        }
      ],
      "stateMutability": "nonpayable",
      "type": "function"
    },
    {
      "inputs": [
        {
          "internalType": "uint256",
          "name": "proposalId",
          "type": "uint256"
        },
        {
          "internalType": "uint8",
          "name": "support",
          "type": "uint8"
        },
        {
          "internalType": "uint8",
          "name": "v",
          "type": "uint8"
        },
        {
          "internalType": "bytes32",
          "name": "r",
          "type": "bytes32"
        },
        {
          "internalType": "bytes32",
          "name": "s",
          "type": "bytes32"
        }
      ],
      "name": "castVoteBySig",
      "outputs": [
        {
          "internalType": "uint256",
          "name": "",
          "type": "uint256"
        }
      ],
      "stateMutability": "nonpayable",
      "type": "function"
    },
    {
      "inputs": [
        {
          "internalType": "uint256",
          "name": "proposalId",
          "type": "uint256"
        },
        {
          "internalType": "uint8",
          "name": "support",
          "type": "uint8"
        },
        {
          "internalType": "string",
          "name": "reason",
          "type": "string"
        }
      ],
      "name": "castVoteWithReason",
      "outputs": [
        {
          "internalType": "uint256",
          "name": "",
          "type": "uint256"
        }
      ],
      "stateMutability": "nonpayable",
      "type": "function"
    },
    {
      "inputs": [
        {
          "internalType": "uint256",
          "name": "proposalId",
          "type": "uint256"
        },
        {
          "internalType": "uint8",
          "name": "support",
          "type": "uint8"
        },
        {
          "internalType": "string",
          "name": "reason",
          "type": "string"
        },
        {
          "internalType": "bytes",
          "name": "params",
          "type": "bytes"
        }
      ],
      "name": "castVoteWithReasonAndParams",
      "outputs": [
        {
          "internalType": "uint256",
          "name": "",
          "type": "uint256"
        }
      ],
      "stateMutability": "nonpayable",
      "type": "function"
    },
    {
      "inputs": [
        {
          "internalType": "uint256",
          "name": "proposalId",
          "type": "uint256"
        },
        {
          "internalType": "uint8",
          "name": "support",
          "type": "uint8"
        },
        {
          "internalType": "string",
          "name": "reason",
          "type": "string"
        },
        {
          "internalType": "bytes",
          "name": "params",
          "type": "bytes"
        },
        {
          "internalType": "uint8",
          "name": "v",
          "type": "uint8"
        },
        {
          "internalType": "bytes32",
          "name": "r",
          "type": "bytes32"
        },
        {
          "internalType": "bytes32",
          "name": "s",
          "type": "bytes32"
        }
      ],
      "name": "castVoteWithReasonAndParamsBySig",
      "outputs": [
        {
          "internalType": "uint256",
          "name": "",
          "type": "uint256"
        }
      ],
      "stateMutability": "nonpayable",
      "type": "function"
    },
    {
      "inputs": [],
      "name": "clock",
      "outputs": [
        {
          "internalType": "uint48",
          "name": "",
          "type": "uint48"
        }
      ],
      "stateMutability": "view",
      "type": "function"
    },
    {
      "inputs": [],
      "name": "eip712Domain",
      "outputs": [
        {
          "internalType": "bytes1",
          "name": "fields",
          "type": "bytes1"
        },
        {
          "internalType": "string",
          "name": "name",
          "type": "string"
        },
        {
          "internalType": "string",
          "name": "version",
          "type": "string"
        },
        {
          "internalType": "uint256",
          "name": "chainId",
          "type": "uint256"
        },
        {
          "internalType": "address",
          "name": "verifyingContract",
          "type": "address"
        },
        {
          "internalType": "bytes32",
          "name": "salt",
          "type": "bytes32"
        },
        {
          "internalType": "uint256[]",
          "name": "extensions",
          "type": "uint256[]"
        }
      ],
      "stateMutability": "view",
      "type": "function"
    },
    {
      "inputs": [
        {
          "internalType": "address[]",
          "name": "targets",
          "type": "address[]"
        },
        {
          "internalType": "uint256[]",
          "name": "values",
          "type": "uint256[]"
        },
        {
          "internalType": "bytes[]",
          "name": "calldatas",
          "type": "bytes[]"
        },
        {
          "internalType": "bytes32",
          "name": "descriptionHash",
          "type": "bytes32"
        }
      ],
      "name": "execute",
      "outputs": [
        {
          "internalType": "uint256",
          "name": "",
          "type": "uint256"
        }
      ],
      "stateMutability": "payable",
      "type": "function"
    },
    {
      "inputs": [
        {
          "internalType": "address",
          "name": "account",
          "type": "address"
        },
        {
          "internalType": "uint256",
          "name": "timepoint",
          "type": "uint256"
        }
      ],
      "name": "getVotes",
      "outputs": [
        {
          "internalType": "uint256",
          "name": "",
          "type": "uint256"
        }
      ],
      "stateMutability": "view",
      "type": "function"
    },
    {
      "inputs": [
        {
          "internalType": "address",
          "name": "account",
          "type": "address"
        },
        {
          "internalType": "uint256",
          "name": "timepoint",
          "type": "uint256"
        },
        {
          "internalType": "bytes",
          "name": "params",
          "type": "bytes"
        }
      ],
      "name": "getVotesWithParams",
      "outputs": [
        {
          "internalType": "uint256",
          "name": "",
          "type": "uint256"
        }
      ],
      "stateMutability": "view",
      "type": "function"
    },
    {
      "inputs": [
        {
          "internalType": "uint256",
          "name": "proposalId",
          "type": "uint256"
        },
        {
          "internalType": "address",
          "name": "account",
          "type": "address"
        }
      ],
      "name": "hasVoted",
      "outputs": [
        {
          "internalType": "bool",
          "name": "",
          "type": "bool"
        }
      ],
      "stateMutability": "view",
      "type": "function"
    },
    {
      "inputs": [
        {
          "internalType": "address[]",
          "name": "targets",
          "type": "address[]"
        },
        {
          "internalType": "uint256[]",
          "name": "values",
          "type": "uint256[]"
        },
        {
          "internalType": "bytes[]",
          "name": "calldatas",
          "type": "bytes[]"
        },
        {
          "internalType": "bytes32",
          "name": "descriptionHash",
          "type": "bytes32"
        }
      ],
      "name": "hashProposal",
      "outputs": [
        {
          "internalType": "uint256",
          "name": "",
          "type": "uint256"
        }
      ],
      "stateMutability": "pure",
      "type": "function"
    },
    {
      "inputs": [],
      "name": "name",
      "outputs": [
        {
          "internalType": "string",
          "name": "",
          "type": "string"
        }
      ],
      "stateMutability": "view",
      "type": "function"
    },
    {
      "inputs": [
        {
          "internalType": "address",
          "name": "",
          "type": "address"
        },
        {
          "internalType": "address",
          "name": "",
          "type": "address"
        },
        {
          "internalType": "uint256[]",
          "name": "",
          "type": "uint256[]"
        },
        {
          "internalType": "uint256[]",
          "name": "",
          "type": "uint256[]"
        },
        {
          "internalType": "bytes",
          "name": "",
          "type": "bytes"
        }
      ],
      "name": "onERC1155BatchReceived",
      "outputs": [
        {
          "internalType": "bytes4",
          "name": "",
          "type": "bytes4"
        }
      ],
      "stateMutability": "nonpayable",
      "type": "function"
    },
    {
      "inputs": [
        {
          "internalType": "address",
          "name": "",
          "type": "address"
        },
        {
          "internalType": "address",
          "name": "",
          "type": "address"
        },
        {
          "internalType": "uint256",
          "name": "",
          "type": "uint256"
        },
        {
          "internalType": "uint256",
          "name": "",
          "type": "uint256"
        },
        {
          "internalType": "bytes",
          "name": "",
          "type": "bytes"
        }
      ],
      "name": "onERC1155Received",
      "outputs": [
        {
          "internalType": "bytes4",
          "name": "",
          "type": "bytes4"
        }
      ],
      "stateMutability": "nonpayable",
      "type": "function"
    },
    {
      "inputs": [
        {
          "internalType": "address",
          "name": "",
          "type": "address"
        },
        {
          "internalType": "address",
          "name": "",
          "type": "address"
        },
        {
          "internalType": "uint256",
          "name": "",
          "type": "uint256"
        },
        {
          "internalType": "bytes",
          "name": "",
          "type": "bytes"
        }
      ],
      "name": "onERC721Received",
      "outputs": [
        {
          "internalType": "bytes4",
          "name": "",
          "type": "bytes4"
        }
      ],
      "stateMutability": "nonpayable",
      "type": "function"
    },
    {
      "inputs": [],
      "name": "propState",
      "outputs": [
        {
          "internalType": "enum IGovernor.ProposalState",
          "name": "",
          "type": "uint8"
        }
      ],
      "stateMutability": "view",
      "type": "function"
    },
    {
      "inputs": [
        {
          "internalType": "uint256",
          "name": "proposalId",
          "type": "uint256"
        }
      ],
      "name": "proposalDeadline",
      "outputs": [
        {
          "internalType": "uint256",
          "name": "",
          "type": "uint256"
        }
      ],
      "stateMutability": "view",
      "type": "function"
    },
    {
      "inputs": [
        {
          "internalType": "uint256",
          "name": "proposalId",
          "type": "uint256"
        }
      ],
      "name": "proposalEta",
      "outputs": [
        {
          "internalType": "uint256",
          "name": "",
          "type": "uint256"
        }
      ],
      "stateMutability": "view",
      "type": "function"
    },
    {
      "inputs": [
        {
          "internalType": "uint256",
          "name": "proposalId",
          "type": "uint256"
        }
      ],
      "name": "proposalProposer",
      "outputs": [
        {
          "internalType": "address",
          "name": "",
          "type": "address"
        }
      ],
      "stateMutability": "view",
      "type": "function"
    },
    {
      "inputs": [
        {
          "internalType": "uint256",
          "name": "proposalId",
          "type": "uint256"
        }
      ],
      "name": "proposalSnapshot",
      "outputs": [
        {
          "internalType": "uint256",
          "name": "",
          "type": "uint256"
        }
      ],
      "stateMutability": "view",
      "type": "function"
    },
    {
      "inputs": [],
      "name": "proposalThreshold",
      "outputs": [
        {
          "internalType": "uint256",
          "name": "",
          "type": "uint256"
        }
      ],
      "stateMutability": "view",
      "type": "function"
    },
    {
      "inputs": [
        {
          "internalType": "uint256",
          "name": "proposalId",
          "type": "uint256"
        }
      ],
      "name": "proposalVotes",
      "outputs": [
        {
          "internalType": "uint256",
          "name": "againstVotes",
          "type": "uint256"
        },
        {
          "internalType": "uint256",
          "name": "forVotes",
          "type": "uint256"
        },
        {
          "internalType": "uint256",
          "name": "abstainVotes",
          "type": "uint256"
        }
      ],
      "stateMutability": "view",
      "type": "function"
    },
    {
      "inputs": [
        {
          "internalType": "address[]",
          "name": "targets",
          "type": "address[]"
        },
        {
          "internalType": "uint256[]",
          "name": "values",
          "type": "uint256[]"
        },
        {
          "internalType": "bytes[]",
          "name": "calldatas",
          "type": "bytes[]"
        },
        {
          "internalType": "string",
          "name": "description",
          "type": "string"
        }
      ],
      "name": "propose",
      "outputs": [
        {
          "internalType": "uint256",
          "name": "",
          "type": "uint256"
        }
      ],
      "stateMutability": "nonpayable",
      "type": "function"
    },
    {
      "inputs": [
        {
          "internalType": "address[]",
          "name": "targets",
          "type": "address[]"
        },
        {
          "internalType": "uint256[]",
          "name": "values",
          "type": "uint256[]"
        },
        {
          "internalType": "bytes[]",
          "name": "calldatas",
          "type": "bytes[]"
        },
        {
          "internalType": "bytes32",
          "name": "descriptionHash",
          "type": "bytes32"
        }
      ],
      "name": "queue",
      "outputs": [
        {
          "internalType": "uint256",
          "name": "",
          "type": "uint256"
        }
      ],
      "stateMutability": "nonpayable",
      "type": "function"
    },
    {
      "inputs": [
        {
          "internalType": "uint256",
          "name": "blockNumber",
          "type": "uint256"
        }
      ],
      "name": "quorum",
      "outputs": [
        {
          "internalType": "uint256",
          "name": "",
          "type": "uint256"
        }
      ],
      "stateMutability": "view",
      "type": "function"
    },
    {
      "inputs": [],
      "name": "quorumDenominator",
      "outputs": [
        {
          "internalType": "uint256",
          "name": "",
          "type": "uint256"
        }
      ],
      "stateMutability": "view",
      "type": "function"
    },
    {
      "inputs": [
        {
          "internalType": "uint256",
          "name": "timepoint",
          "type": "uint256"
        }
      ],
      "name": "quorumNumerator",
      "outputs": [
        {
          "internalType": "uint256",
          "name": "",
          "type": "uint256"
        }
      ],
      "stateMutability": "view",
      "type": "function"
    },
    {
      "inputs": [],
      "name": "quorumNumerator",
      "outputs": [
        {
          "internalType": "uint256",
          "name": "",
          "type": "uint256"
        }
      ],
      "stateMutability": "view",
      "type": "function"
    },
    {
      "inputs": [
        {
          "internalType": "address",
          "name": "target",
          "type": "address"
        },
        {
          "internalType": "uint256",
          "name": "value",
          "type": "uint256"
        },
        {
          "internalType": "bytes",
          "name": "data",
          "type": "bytes"
        }
      ],
      "name": "relay",
      "outputs": [],
      "stateMutability": "payable",
      "type": "function"
    },
    {
      "inputs": [
        {
          "internalType": "uint256",
          "name": "newProposalThreshold",
          "type": "uint256"
        }
      ],
      "name": "setProposalThreshold",
      "outputs": [],
      "stateMutability": "nonpayable",
      "type": "function"
    },
    {
      "inputs": [
        {
          "internalType": "uint256",
          "name": "newVotingDelay",
          "type": "uint256"
        }
      ],
      "name": "setVotingDelay",
      "outputs": [],
      "stateMutability": "nonpayable",
      "type": "function"
    },
    {
      "inputs": [
        {
          "internalType": "uint256",
          "name": "newVotingPeriod",
          "type": "uint256"
        }
      ],
      "name": "setVotingPeriod",
      "outputs": [],
      "stateMutability": "nonpayable",
      "type": "function"
    },
    {
      "inputs": [
        {
          "internalType": "uint256",
          "name": "proposalId",
          "type": "uint256"
        }
      ],
      "name": "state",
      "outputs": [
        {
          "internalType": "enum IGovernor.ProposalState",
          "name": "",
          "type": "uint8"
        }
      ],
      "stateMutability": "pure",
      "type": "function"
    },
    {
      "inputs": [
        {
          "internalType": "bytes4",
          "name": "interfaceId",
          "type": "bytes4"
        }
      ],
      "name": "supportsInterface",
      "outputs": [
        {
          "internalType": "bool",
          "name": "",
          "type": "bool"
        }
      ],
      "stateMutability": "view",
      "type": "function"
    },
    {
      "inputs": [],
      "name": "timelock",
      "outputs": [
        {
          "internalType": "address",
          "name": "",
          "type": "address"
        }
      ],
      "stateMutability": "view",
      "type": "function"
    },
    {
      "inputs": [],
      "name": "token",
      "outputs": [
        {
          "internalType": "contract IERC5805",
          "name": "",
          "type": "address"
        }
      ],
      "stateMutability": "view",
      "type": "function"
    },
    {
      "inputs": [
        {
          "internalType": "uint256",
          "name": "newQuorumNumerator",
          "type": "uint256"
        }
      ],
      "name": "updateQuorumNumerator",
      "outputs": [],
      "stateMutability": "nonpayable",
      "type": "function"
    },
    {
      "inputs": [
        {
          "internalType": "contract TimelockController",
          "name": "newTimelock",
          "type": "address"
        }
      ],
      "name": "updateTimelock",
      "outputs": [],
      "stateMutability": "nonpayable",
      "type": "function"
    },
    {
      "inputs": [],
      "name": "version",
      "outputs": [
        {
          "internalType": "string",
          "name": "",
          "type": "string"
        }
      ],
      "stateMutability": "view",
      "type": "function"
    },
    {
      "inputs": [],
      "name": "votingDelay",
      "outputs": [
        {
          "internalType": "uint256",
          "name": "",
          "type": "uint256"
        }
      ],
      "stateMutability": "view",
      "type": "function"
    },
    {
      "inputs": [],
      "name": "votingPeriod",
      "outputs": [
        {
          "internalType": "uint256",
          "name": "",
          "type": "uint256"
        }
      ],
      "stateMutability": "view",
      "type": "function"
    },
    {
      "stateMutability": "payable",
      "type": "receive"
    }
  ],
  "bytecode": "0x61018060405234620000ad5762000020620000196200014d565b90620001c1565b604051613e3f908162000dff823960805181612f6c015260a05181613021015260c05181612f36015260e05181612fbb01526101005181612fe1015261012051816115420152610140518161156e0152610160518181816116a801528181611ccb01528181611e2a01528181611ecc015281816121f70152818161273e01528181612815015261290b0152f35b600080fd5b634e487b7160e01b600052604160045260246000fd5b604081019081106001600160401b03821117620000e457604052565b620000b2565b60c081019081106001600160401b03821117620000e457604052565b601f909101601f19168101906001600160401b03821190821017620000e457604052565b604051906200013982620000c8565b565b6001600160a01b03811603620000ad57565b62004c5e906040823803928382519485926200016a828562000106565b833981010312620000ad57602082519262000185846200013b565b01519162000193836200013b565b9190565b60405190620001a682620000c8565b600d8252565b60405190620001bb82620000c8565b60018252565b90620001399162000297620001d562000197565b602081016c2132bb37b923b7bb32b93737b960991b8152620001f6620001ac565b906020820190603160f81b82526200020e8462000a23565b610120526200021d8362000b31565b6101405283519020918260e05251902080610100524660a0526040519060208201927f8b73c3c69bb8fe3d512ecc4cf759cc79239f7b179b0ffacaa9a75d522b39400f8452604083015260608201524660808201523060a082015260a081526200028781620000ea565b5190206080523060c0526200041c565b620002a16200050f565b620002ab6200054b565b620002b562000587565b6001600160a01b031661016052620002cc62000674565b620005c1565b90600182811c9216801562000304575b6020831014620002ee57565b634e487b7160e01b600052602260045260246000fd5b91607f1691620002e2565b601f81116200031c575050565b6000906002825260208220906020601f850160051c830194106200035d575b601f0160051c01915b8281106200035157505050565b81815560010162000344565b90925082906200033b565b601f811162000375575050565b60009081805260208220906020601f850160051c83019410620003b5575b601f0160051c01915b828110620003a957505050565b8181556001016200039c565b909250829062000393565b90601f8211620003ce575050565b60019160009083825260208220906020601f850160051c8301941062000411575b601f0160051c01915b828110620004065750505050565b8181558301620003f8565b9092508290620003ef565b80519091906001600160401b038111620000e457620004488162000442600254620002d2565b6200030f565b602080601f83116001146200048757508192936000926200047b575b50508160011b916000199060031b1c191617600255565b01519050388062000464565b6002600052601f198316949091907f405787fa12a823e0f2b7631cc41b3ba8828b3321ca811111fa75cd3aa3bb5ace926000905b878210620004f6575050836001959610620004dc575b505050811b01600255565b015160001960f88460031b161c19169055388080620004d1565b80600185968294968601518155019501930190620004bb565b6006546040519081527fc565b045403dc03c2eea82b81a0465edad9e2e7fc4d97e11421c209da93d7a936040611c2092836020820152a1600655565b6007546040519081527f7e3f7f0708a84de9203036abaa450dccc85ad5ff52f78c170f3edb55cf5e8828604061c4e092836020820152a1600755565b7fccb45da8d5717e6c4544694297c4ba5cf151d455c9bb0ed4fc7a38411bc054616040600854815190815260006020820152a16000600855565b600c547f08f74ea46ef7894f65eabfb5e6e695de773a000b47c529ab559178069b226401604060018060a01b038094169381519084168152846020820152a16001600160a01b03191617600c55565b600b5468010000000000000000811015620000e4576001810180600b558110156200065e57600b6000526020600020019063ffffffff81511690602063ffffffff1991015160201b16179055565b634e487b7160e01b600052603260045260246000fd5b600b54801590600090821562000745575050620006f860008051602062004c3e83398151915291600a54905b81151590816200073c575b50620006fd575b620006df620006d9620006d3620006c8620007af565b65ffffffffffff1690565b62000d98565b620008ed565b5050604080519182526004602083015290918291820190565b0390a1565b620007366200070c8262000cc6565b620007306200071a6200012a565b600081526001600160e01b039092166020830152565b62000610565b620006b2565b905038620006ab565b6000199181838101116200079b57600b9052017f0175b7a638427703f0dbe7bb9bbf987a2551717b34e79f33b5b1008d1fa01db9015460008051602062004c3e83398151915291620006f89160201c90620006a0565b634e487b7160e01b81526011600452602490fd5b610160516040516324776b7d60e21b815290602090829060049082906001600160a01b03165afa8091600091620007f7575b5090620007f45750620007f44362000d30565b90565b6020813d82116200083c575b81620008126020938362000106565b810103126200083857519065ffffffffffff8216820362000835575038620007e1565b80fd5b5080fd5b3d915062000803565b6000198101919082116200085557565b634e487b7160e01b600052601160045260246000fd5b604080519192919081016001600160401b03811182821017620000e457604052602081935463ffffffff81168352811c910152565b15620008a857565b60405162461bcd60e51b815260206004820152601b60248201527f436865636b706f696e743a2064656372656173696e67206b65797300000000006044820152606490fd5b600b548015620009fa57620009c29181620009426200093c6200091260209562000845565b600b6000527f0175b7a638427703f0dbe7bb9bbf987a2551717b34e79f33b5b1008d1fa01db90190565b6200086b565b9162000952835163ffffffff1690565b6200096b63ffffffff91828416928391161115620008a0565b620009876200097e855163ffffffff1690565b63ffffffff1690565b03620009c85750620009a162000912620009b49262000845565b64040000000063ffffffff825416179055565b01516001600160e01b031690565b90600490565b620009f49150620009e8620009dc6200012a565b63ffffffff9092168252565b60048185015262000610565b620009b4565b5062000a1b9062000a0e620009dc6200012a565b6004602082015262000610565b600090600490565b90815160209081811060001462000a4257505090620007f49062000c49565b6001600160401b038111620000e45760009162000a6b8262000a658554620002d2565b62000368565b80601f831160011462000aaa575082939482939262000a9e575b50508160011b916000199060031b1c191617905560ff90565b01519050388062000a85565b60008052601f198316957f290decd9548b62a8d60345a988386fc84ba6bc95484008f6362f93160ef3e563929185905b88821062000b185750508360019596971062000afe575b505050811b01905560ff90565b015160001960f88460031b161c1916905538808062000af1565b8060018596829496860151815501950193019062000ada565b90815160209081811060001462000b5057505090620007f49062000c49565b6001600160401b038111620000e45760019162000b798262000b738554620002d2565b620003c0565b80601f831160011462000bb857508192939460009262000bac575b5050600019600383901b1c191690821b17905560ff90565b01519050388062000b94565b6001600052601f198316959091907fb10e2d527612073b26eecdfd717e6a320cf44b4afac2b0732d9fcbe2b7fa0cf6926000905b88821062000c0d575050838596971062000afe57505050811b01905560ff90565b80878596829496860151815501950193019062000bec565b60208151910151906020811062000c3a575090565b6000199060200360031b1b1690565b601f81511162000c645762000c5e8162000c25565b90511790565b6040519063305a27a960e01b82528160208060048301528251908160248401526000935b82851062000cac575050604492506000838284010152601f80199101168101030190fd5b848101820151868601604401529381019385935062000c88565b6001600160e01b039081811162000cdb571690565b60405162461bcd60e51b815260206004820152602760248201527f53616665436173743a2076616c756520646f65736e27742066697420696e20326044820152663234206269747360c81b6064820152608490fd5b65ffffffffffff9081811162000d44571690565b60405162461bcd60e51b815260206004820152602660248201527f53616665436173743a2076616c756520646f65736e27742066697420696e203460448201526538206269747360d01b6064820152608490fd5b63ffffffff9081811162000daa571690565b60405162461bcd60e51b815260206004820152602660248201527f53616665436173743a2076616c756520646f65736e27742066697420696e203360448201526532206269747360d01b6064820152608490fdfe60806040526004361015610023575b361561001957600080fd5b610021611efb565b005b60003560e01c806301ffc9a71461031357806302a251a31461030e578063034201811461030957806306f3f9e61461030457806306fdde03146102ff578063143489d0146102fa578063150b7a02146102f5578063160cbed7146102f05780632656227d146102eb5780632d63f693146102e65780632fe3e261146102e15780633932abb1146102dc5780633bccf4fd146102d75780633e4f49e6146102d257806343859632146102cd578063452115d6146102c85780634bf5d7e9146102c3578063544ffc9c146102be57806354fd4d50146102b957806356781388146102b45780635f398a14146102af57806360c4247f146102aa57806370b0f660146102a55780637b3c71d3146102a05780637d5e81e21461029b57806384b0196e1461029657806391ddadf41461029157806397c3d3341461028c5780639a802a6d146102875780639f0860c814610282578063a7713a701461027d578063a890c91014610278578063ab58fb8e14610273578063b58131b01461026e578063bc197c8114610269578063c01f9e3714610264578063c28bc2fa1461025f578063c59057e41461025a578063d33219b414610255578063dd4e2ba514610250578063deaaa7cc1461024b578063ea0217cf14610246578063eb9019d414610241578063ece40cc11461023c578063f23a6e6114610237578063f8ce560a146102325763fc0c546a0361000e57611eb6565b611dfa565b611da1565b611d0f565b611c6f565b611b82565b611b47565b611ae9565b611ac0565b611aa4565b611983565b61194b565b6118bf565b6118a1565b6117f8565b61174c565b611731565b61170b565b61163a565b61161e565b6115f3565b611529565b61145c565b611407565b611375565b611357565b6112e8565b611298565b611256565b611213565b6111e3565b61112c565b6110d3565b6110a8565b610fc8565b610faa565b610f6f565b610f3a565b610d9d565b610bb3565b61099b565b610953565b610872565b610684565b6105fc565b6103e8565b346103d85760203660031901126103d85760043563ffffffff60e01b81168091036103d85761036190636e665ced60e01b8114908115610365575b5060405190151581529081906020820190565b0390f35b63bf26d89760e01b8114915081156103c7575b81156103b6575b81156103a5575b8115610394575b503861034e565b6301ffc9a760e01b1490503861038d565b630271189760e51b81149150610386565b63288ace0360e11b8114915061037f565b6379dd796f60e01b81149150610378565b600080fd5b60009103126103d857565b346103d85760003660031901126103d8576020600754604051908152f35b6024359060ff821682036103d857565b6044359060ff821682036103d857565b9181601f840112156103d8578235916001600160401b0383116103d857602083818601950101116103d857565b634e487b7160e01b600052604160045260246000fd5b6001600160401b03811161047c57604052565b610453565b604081019081106001600160401b0382111761047c57604052565b608081019081106001600160401b0382111761047c57604052565b602081019081106001600160401b0382111761047c57604052565b606081019081106001600160401b0382111761047c57604052565b60c081019081106001600160401b0382111761047c57604052565b90601f801991011681019081106001600160401b0382111761047c57604052565b6040519061053682610481565b565b6040519060e082018281106001600160401b0382111761047c57604052565b6001600160401b03811161047c57601f01601f191660200190565b91909161057e81610557565b61058b6040519182610508565b809382825282116103d857818160009384602080950137010152565b9291926105b382610557565b916105c16040519384610508565b8294818452818301116103d8578281602093846000960137010152565b9080601f830112156103d8578160206105f9933591016105a7565b90565b346103d85760e03660031901126103d857610615610406565b6001600160401b036044358181116103d857610635903690600401610426565b916064359081116103d85761064e9036906004016105de565b9260843560ff811681036103d857610361946106749460c4359460a43594600435612243565b6040519081529081906020820190565b346103d85760203660031901126103d857600c54600435906001600160a01b03166106b033821461248f565b30036107f3575b6064811161077c577f0553476bf02ef2726e8ce5ced78d63e26e602e4a2257b1f559418e24b4633997906106e961293f565b80151580610772575b61073b575b610727610718610713610708612729565b65ffffffffffff1690565b613438565b61072184613368565b90612c5b565b5050604080519182526020820192909252a1005b61076d61074782613368565b610768610752610529565b600081526001600160e01b039092166020830152565b612b75565b6106f7565b50600b54156106f2565b60405162461bcd60e51b815260206004820152604360248201527f476f7665726e6f72566f74657351756f72756d4672616374696f6e3a2071756f60448201527f72756d4e756d657261746f72206f7665722071756f72756d44656e6f6d696e616064820152623a37b960e91b608482015260a490fd5b6107fd3636610572565b602081519101205b8061080e61349d565b0361080557506106b7565b60005b83811061082c5750506000910152565b818101518382015260200161081c565b9060209161085581518092818552858086019101610819565b601f01601f1916010190565b9060206105f992818152019061083c565b346103d85760008060031936011261095057604051908060025461089581611f54565b8085529160019180831690811561092657506001146108cb575b610361856108bf81870382610508565b60405191829182610861565b9250600283527f405787fa12a823e0f2b7631cc41b3ba8828b3321ca811111fa75cd3aa3bb5ace5b82841061090e5750505081016020016108bf826103616108af565b805460208587018101919091529093019281016108f3565b869550610361969350602092506108bf94915060ff191682840152151560051b82010192936108af565b80fd5b346103d85760203660031901126103d8576004356000526003602052602060018060a01b0360406000205460401c16604051908152f35b6001600160a01b038116036103d857565b346103d85760803660031901126103d8576109b760043561098a565b6109c260243561098a565b6064356001600160401b0381116103d8576109e19036906004016105de565b50604051630a85bd0160e11b8152602090f35b6001600160401b03811161047c5760051b60200190565b81601f820112156103d857803591610a22836109f4565b92610a306040519485610508565b808452602092838086019260051b8201019283116103d8578301905b828210610a5a575050505090565b8380918335610a688161098a565b815201910190610a4c565b81601f820112156103d857803591610a8a836109f4565b92610a986040519485610508565b808452602092838086019260051b8201019283116103d8578301905b828210610ac2575050505090565b81358152908301908301610ab4565b9080601f830112156103d857813590610ae9826109f4565b92610af76040519485610508565b828452602092838086019160051b830101928084116103d857848301915b848310610b255750505050505090565b82356001600160401b0381116103d8578691610b46848480948901016105de565b815201920191610b15565b60806003198201126103d8576001600160401b03916004358381116103d85782610b7d91600401610a0b565b926024358181116103d85783610b9591600401610a73565b926044359182116103d857610bac91600401610ad1565b9060643590565b346103d857610bc136610b51565b92610bd184838584969596612020565b92610bef6004610be0866134fa565b610be98161108b565b14612084565b600c54610c0c906001600160a01b03165b6001600160a01b031690565b60405163793d064960e11b815293906020908186600481845afa958615610d4c57600096610d7e575b5081604051809263b1c5f42760e01b82528180610c588d8a8a8d60048601612695565b03915afa918215610d4c57600092610d51575b5050610c8186600052600d602052604060002090565b55600c54610c97906001600160a01b0316610c00565b90813b156103d85760008094610cc4876040519a8b97889687956308f2a0bb60e41b8752600487016126db565b03925af1928315610d4c57610d087f9a2e42fd6722813d69113e7d0079d3d940171428df7373df9c7f7617cfda289292610d209261036196610d33575b5042612545565b60408051858152602081019290925290918291820190565b0390a16040519081529081906020820190565b80610d40610d4692610469565b806103dd565b38610d01565b612689565b610d709250803d10610d77575b610d688183610508565b81019061267a565b3880610c6b565b503d610d5e565b610d96919650823d8411610d7757610d688183610508565b9438610c35565b610da636610b51565b610db4818385879597612020565b92610dbe846134fa565b926008841015610f3557610ddf600494858114908115610f21575b50612084565b610e066002610df8876000526003602052604060002090565b01805460ff19166001179055565b6040938451908682527f712ae1383f79ac853f8d882153778e0260ef8f03b504e2866e0593e04d2b291f60208093a1600c546001600160a01b039081163003610e72575b50505094610e5c929161036196613bed565b610e64612185565b519081529081906020820190565b9092979591949396600094855b8a51811015610f0557808988828b8f89610e9d610eae98309361216c565b511614610eb3575b50505050612147565b610e7f565b610ec2600192610efc9561216c565b5181815191012060058c5460801d92600f9584870b9052528a8d205501900b6001600160801b036004549181199060801b16911617600455565b8988828b610ea5565b509450969195925050610e5c9350610361969196819394610e4a565b60059150610f2e8161108b565b1438610dd9565b611075565b346103d85760203660031901126103d857600435600052600360205260206001600160401b0360406000205416604051908152f35b346103d85760003660031901126103d85760206040517fb3b3f3b703cd84ce352197dcff232b1b5d3cfb2025ce47cf04742d0651f1af888152f35b346103d85760003660031901126103d8576020600654604051908152f35b346103d85760a03660031901126103d857610361610674600435610fea610406565b61105f611057610ff8610416565b60405160208101917f150214d74d59b7d1e90c73fc22ef3d991dd0a76b046543d4d80ab92d2a50328f835286604083015260ff861660608301526060825261103f8261049c565b6110526084359360643593519020612f0d565b612e8b565b919091612d6b565b6040519261106c846104b7565b600084526122de565b634e487b7160e01b600052602160045260246000fd5b60081115610f3557565b919060208301926008821015610f355752565b346103d85760203660031901126103d8576103616110c76004356134fa565b60405191829182611095565b346103d85760403660031901126103d857602060ff6111206024356110f78161098a565b6004356000526009845260036040600020019060018060a01b0316600052602052604060002090565b54166040519015158152f35b346103d85761113a36610b51565b9061114782828587612020565b92611151846134fa565b6008811015610f355761119e5761036194611199611192610c00611182610674986000526003602052604060002090565b5460401c6001600160a01b031690565b33146120da565b613c41565b60405162461bcd60e51b815260206004820152601c60248201527f476f7665726e6f723a20746f6f206c61746520746f2063616e63656c000000006044820152606490fd5b346103d85760003660031901126103d8576103616111ff6127ff565b60405191829160208352602083019061083c565b346103d85760203660031901126103d857600435600052600960205260606040600020805490600260018201549101549060405192835260208301526040820152f35b346103d85760003660031901126103d85761036160405161127681610481565b60018152603160f81b602082015260405191829160208352602083019061083c565b346103d85760403660031901126103d85760206112e06112b6610406565b6040516112c2816104b7565b60008152604051916112d3836104b7565b600083523360043561235a565b604051908152f35b346103d85760803660031901126103d857611301610406565b6001600160401b03906044358281116103d857611322903690600401610426565b90916064359384116103d85761134d6112e09361134560209636906004016105de565b9336916105a7565b903360043561235a565b346103d85760203660031901126103d85760206112e06004356129da565b346103d85760203660031901126103d857600c54600435906001600160a01b03166113a133821461248f565b30036113e1575b60065460408051918252602082018390527fc565b045403dc03c2eea82b81a0465edad9e2e7fc4d97e11421c209da93d7a9391a1600655005b6113eb3636610572565b602081519101205b806113fc61349d565b036113f357506113a8565b346103d85760603660031901126103d857611420610406565b6044356001600160401b0381116103d85760209161144f6114486112e0933690600401610426565b36916105a7565b604051916112d3836104b7565b346103d85760803660031901126103d8576001600160401b036004358181116103d85761148d903690600401610a0b565b906024358181116103d8576114a6903690600401610a73565b916044358281116103d8576114bf903690600401610ad1565b6064359283116103d857366023840112156103d857610361936114ef6106749436906024816004013591016105a7565b926138b1565b90815180825260208080930193019160005b828110611515575050505090565b835185529381019392810192600101611507565b346103d85760003660031901126103d8576115c46115667f0000000000000000000000000000000000000000000000000000000000000000613047565b6103616115927f000000000000000000000000000000000000000000000000000000000000000061313e565b6115d2604051916115a2836104b7565b60008352604051958695600f60f81b875260e0602088015260e087019061083c565b90858203604087015261083c565b90466060850152306080850152600060a085015283820360c08501526114f5565b346103d85760003660031901126103d857602061160e612729565b65ffffffffffff60405191168152f35b346103d85760003660031901126103d857602060405160648152f35b346103d85760603660031901126103d8576004356116578161098a565b6044356001600160401b0381116103d85760449161167b60209236906004016105de565b50604051630748d63560e31b81526001600160a01b039182166004820152602480359082015292839182907f0000000000000000000000000000000000000000000000000000000000000000165afa8015610d4c57610361916000916116ed575b506040519081529081906020820190565b611705915060203d8111610d7757610d688183610508565b386116dc565b346103d85760003660031901126103d85761036160ff600e541660405191829182611095565b346103d85760003660031901126103d85760206112e061293f565b346103d85760203660031901126103d8576004356117698161098a565b600c546001600160a01b039190821661178333821461248f565b30036117d2575b7f08f74ea46ef7894f65eabfb5e6e695de773a000b47c529ab559178069b226401604083600c5493169381519084168152846020820152a16001600160a01b03191617600c55005b6117dc3636610572565b602081519101205b806117ed61349d565b036117e4575061178a565b346103d85760203660031901126103d857611851602060018060a01b03600c541661182f600435600052600d602052604060002090565b5490604051808095819463d45c443560e01b8352600483019190602083019252565b03915afa908115610d4c57600091611883575b506001810361187a575060405160008152602090f35b61036190610674565b61189b915060203d8111610d7757610d688183610508565b38611864565b346103d85760003660031901126103d8576020600854604051908152f35b346103d85760a03660031901126103d8576118db60043561098a565b6118e660243561098a565b6001600160401b036044358181116103d857611906903690600401610a73565b506064358181116103d85761191f903690600401610a73565b506084359081116103d8576119389036906004016105de565b5060405163bc197c8160e01b8152602090f35b346103d85760203660031901126103d857600435600052600360205260206001600160401b0360016040600020015416604051908152f35b60603660031901126103d85760043561199b8161098a565b6044356001600160401b0381116103d8576119ba903690600401610426565b600c54909291906001600160a01b03166119d533821461248f565b3003611a7e575b611a7391836040519485938437820190600094859383858095520391602435905af13d15611a77573d611a0e81610557565b90611a1c6040519283610508565b81523d84602083013e5b60405191611a33836104d2565b602883527f476f7665726e6f723a2072656c617920726576657274656420776974686f7574602084015267206d65737361676560c01b6040840152612bcf565b5080f35b6060611a26565b611a883636610572565b602081519101205b80611a9961349d565b03611a9057506119dc565b346103d85760206112e0611ab736610b51565b92919091612020565b346103d85760003660031901126103d857600c546040516001600160a01b039091168152602090f35b346103d85760003660031901126103d857610361604051611b0981610481565b602081527f737570706f72743d627261766f2671756f72756d3d666f722c6162737461696e602082015260405191829160208352602083019061083c565b346103d85760003660031901126103d85760206040517f150214d74d59b7d1e90c73fc22ef3d991dd0a76b046543d4d80ab92d2a50328f8152f35b346103d85760203660031901126103d857600c54600435906001600160a01b0316611bae33821461248f565b3003611c49575b8015611bf45760075460408051918252602082018390527f7e3f7f0708a84de9203036abaa450dccc85ad5ff52f78c170f3edb55cf5e882891a1600755005b60405162461bcd60e51b815260206004820152602760248201527f476f7665726e6f7253657474696e67733a20766f74696e6720706572696f6420604482015266746f6f206c6f7760c81b6064820152608490fd5b611c533636610572565b602081519101205b80611c6461349d565b03611c5b5750611bb5565b346103d85760403660031901126103d85760446020600435611c908161098a565b6000604051611c9e816104b7565b52604051630748d63560e31b81526001600160a01b039182166004820152602480359082015292839182907f0000000000000000000000000000000000000000000000000000000000000000165afa8015610d4c57610361916000916116ed57506040519081529081906020820190565b346103d85760203660031901126103d857600c54600435906001600160a01b0316611d3b33821461248f565b3003611d7b575b60085460408051918252602082018390527fccb45da8d5717e6c4544694297c4ba5cf151d455c9bb0ed4fc7a38411bc0546191a1600855005b611d853636610572565b602081519101205b80611d9661349d565b03611d8d5750611d42565b346103d85760a03660031901126103d857611dbd60043561098a565b611dc860243561098a565b6084356001600160401b0381116103d857611de79036906004016105de565b5060405163f23a6e6160e01b8152602090f35b346103d85760203660031901126103d857604051632394e7a360e21b8152600480359082018190526020826024817f00000000000000000000000000000000000000000000000000000000000000006001600160a01b03165afa918215610d4c57600092611e92575b50611e6d906129da565b90818102918183041490151715611e8d5760405160649091048152602090f35b612131565b611e6d919250611eaf9060203d8111610d7757610d688183610508565b9190611e63565b346103d85760003660031901126103d8576040517f00000000000000000000000000000000000000000000000000000000000000006001600160a01b03168152602090f35b600c546001600160a01b03163003611f0f57565b60405162461bcd60e51b815260206004820152601f60248201527f476f7665726e6f723a206d7573742073656e6420746f206578656375746f72006044820152606490fd5b90600182811c92168015611f84575b6020831014611f6e57565b634e487b7160e01b600052602260045260246000fd5b91607f1691611f63565b90815180825260208080930193019160005b828110611fae575050505090565b83516001600160a01b031685529381019392810192600101611fa0565b90815180825260208092019182818360051b85019501936000915b848310611ff65750505050505090565b909192939495848061201083856001950387528a5161083c565b9801930193019194939290611fe6565b929061206c9261207e9260405194859261205c612049602086019960808b5260a0870190611f8e565b601f1996878783030160408801526114f5565b9085858303016060860152611fcb565b90608083015203908101835282610508565b51902090565b1561208b57565b60405162461bcd60e51b815260206004820152602160248201527f476f7665726e6f723a2070726f706f73616c206e6f74207375636365737366756044820152601b60fa1b6064820152608490fd5b156120e157565b60405162461bcd60e51b815260206004820152602260248201527f476f7665726e6f723a206f6e6c792070726f706f7365722063616e2063616e63604482015261195b60f21b6064820152608490fd5b634e487b7160e01b600052601160045260246000fd5b6000198114611e8d5760010190565b634e487b7160e01b600052603260045260246000fd5b80518210156121805760209160051b010190565b612156565b600c546001600160a01b0316300361219957565b60045480600f0b9060801d600f0b136121ae57565b6000600455565b9060209060006040516121c7816104b7565b52604051630748d63560e31b81526001600160a01b039384166004820152602481019190915291829060449082907f0000000000000000000000000000000000000000000000000000000000000000165afa908115610d4c5760009161222b575090565b6105f9915060203d8111610d7757610d688183610508565b94926122d06105f9986122d894939698611448966110528a8a8d612268368a8c6105a7565b6020815191012090602081519101209060ff6040519360208501957fb3b3f3b703cd84ce352197dcff232b1b5d3cfb2025ce47cf04742d0651f1af8887526040860152166060840152608083015260a082015260a081526122c8816104ed565b519020612f0d565b949094612d6b565b9261235a565b916105f99391604051936122f1856104b7565b6000855261235a565b93909260ff612326936105f997958752166020860152604085015260a0606085015260a084019061083c565b91608081840391015261083c565b909260ff6080936105f9969584521660208301526040820152816060820152019061083c565b92919083600052600360205260406000206001612376866134fa565b61237f8161108b565b0361243e576123a761239b6123ad92546001600160401b031690565b6001600160401b031690565b826128da565b946123ba86848488612552565b805161240257506123fc7fb8e138887d0aa13bab447e82de9d5c1777041ecd21ca36ba824ff1e6c07ddda4938660405194859460018060a01b03169785612334565b0390a290565b6123fc907fe2babfbac5889a709b63bb7f598b324e08bc5a4fb9ec647fb3cbc9ec07eb8712948760405195869560018060a01b031698866122fa565b60405162461bcd60e51b815260206004820152602360248201527f476f7665726e6f723a20766f7465206e6f742063757272656e746c792061637460448201526269766560e81b6064820152608490fd5b1561249657565b60405162461bcd60e51b815260206004820152601860248201527f476f7665726e6f723a206f6e6c79476f7665726e616e636500000000000000006044820152606490fd5b156124e257565b60405162461bcd60e51b815260206004820152602760248201527f476f7665726e6f72566f74696e6753696d706c653a20766f746520616c726561604482015266191e4818d85cdd60ca1b6064820152608490fd5b9060018201809211611e8d57565b91908201809211611e8d57565b916125ce6125c161257060ff94956000526009602052604060002090565b94600386016125aa6125a56125a161259a85859060018060a01b0316600052602052604060002090565b5460ff1690565b1590565b6124db565b9060018060a01b0316600052602052604060002090565b805460ff19166001179055565b16806125e55750906125e1908254612545565b9055565b600181036125fd575060016125e19101918254612545565b6002036126135760026125e19101918254612545565b60405162461bcd60e51b815260206004820152603560248201527f476f7665726e6f72566f74696e6753696d706c653a20696e76616c69642076616044820152746c756520666f7220656e756d20566f74655479706560581b6064820152608490fd5b0390fd5b908160209103126103d8575190565b6040513d6000823e3d90fd5b9493926126c16080936126b36126cf9460a08a5260a08a0190611f8e565b9088820360208a01526114f5565b908682036040880152611fcb565b93600060608201520152565b919261270a60a0946126fc612718949998979960c0875260c0870190611f8e565b9085820360208701526114f5565b908382036040850152611fcb565b946000606083015260808201520152565b6040516324776b7d60e21b81526020816004817f00000000000000000000000000000000000000000000000000000000000000006001600160a01b03165afa8091600091612782575b50906105f957506105f9436133d1565b6020813d82116127be575b8161279a60209383610508565b810103126127ba57519065ffffffffffff82168203610950575038612772565b5080fd5b3d915061278d565b604051906127d382610481565b601d82527f6d6f64653d626c6f636b6e756d6265722666726f6d3d64656661756c740000006020830152565b604051634bf5d7e960e01b8152600080826004817f00000000000000000000000000000000000000000000000000000000000000006001600160a01b03165afa90918282612857575b50506105f957506105f96127c6565b909192503d8082843e61286a8184610508565b8201916020818403126127ba578051906001600160401b0382116128d6570182601f820112156127ba578051916128a083610557565b936128ae6040519586610508565b838552602084840101116109505750906128ce9160208085019101610819565b903880612848565b8280fd5b604051630748d63560e31b81526001600160a01b0391821660048201526024810192909252602090829060449082907f0000000000000000000000000000000000000000000000000000000000000000165afa908115610d4c5760009161222b575090565b600b5460009080612952575050600a5490565b80600019810111611e8d57600b7f0175b7a638427703f0dbe7bb9bbf987a2551717b34e79f33b5b1008d1fa01db89252015460201c90565b600019810191908211611e8d57565b602719810191908211611e8d57565b90604051604081018181106001600160401b0382111761047c57604052602081935463ffffffff81168352811c910152565b600b9081548015612b6c576000198101818111611e8d5781111561218057600092808452612a297f0175b7a638427703f0dbe7bb9bbf987a2551717b34e79f33b5b1008d1fa01db883016129a8565b9263ffffffff9381858251161115612b565750612a4590613438565b92848360058111612b06575b5092939192918116905b848310612ab257505050508015600014612a7d57505b6001600160e01b031690565b612aad9150612a8e612aa69161298a565b600b600052600080516020613dea8339815191520190565b5460201c90565b612a71565b909192938084169080851860011c8201809211611e8d57858752838383600080516020613dea83398151915201541611600014612af45750935b929190612a5b565b949350612b0090612537565b92612aec565b9093612b1182613216565b8203918211611e8d57838752600080516020613dea83398151915282015483168684161015612b4557508190935b90612a51565b9350612b518291612537565b612b3f565b602001516001600160e01b031695945050505050565b505050600a5490565b600b54906801000000000000000082101561047c576001820180600b5582101561218057600b600052805160209182015190911b63ffffffff191663ffffffff9190911617600080516020613dea83398151915290910155565b90919015612bdb575090565b815115612beb5750805190602001fd5b60405162461bcd60e51b81526020600482015290819061267690602483019061083c565b15612c1657565b60405162461bcd60e51b815260206004820152601b60248201527f436865636b706f696e743a2064656372656173696e67206b65797300000000006044820152606490fd5b600b549192918015612d3757612cfd918185612c83612c7e612a8e60209661298a565b6129a8565b92612c92845163ffffffff1690565b612ca963ffffffff91828416928391161115612c0f565b612cc3612cba865163ffffffff1690565b63ffffffff1690565b03612d015750612cd8612a8e612cef9361298a565b9063ffffffff82549181199060201b169116179055565b01516001600160e01b031690565b9190565b9050612d329150612d1f612d13610529565b63ffffffff9092168252565b6001600160e01b03871681850152612b75565b612cef565b50612d5b90612d47612d13610529565b6001600160e01b0384166020820152612b75565b60009190565b60051115610f3557565b612d7481612d61565b80612d7c5750565b612d8581612d61565b60018103612dd25760405162461bcd60e51b815260206004820152601860248201527f45434453413a20696e76616c6964207369676e617475726500000000000000006044820152606490fd5b612ddb81612d61565b60028103612e285760405162461bcd60e51b815260206004820152601f60248201527f45434453413a20696e76616c6964207369676e6174757265206c656e677468006044820152606490fd5b80612e34600392612d61565b14612e3b57565b60405162461bcd60e51b815260206004820152602260248201527f45434453413a20696e76616c6964207369676e6174757265202773272076616c604482015261756560f01b6064820152608490fd5b9291907f7fffffffffffffffffffffffffffffff5d576e7357a4501ddfe92f46681b20a08311612f015791608094939160ff602094604051948552168484015260408301526060820152600093849182805260015afa15610d4c5781516001600160a01b03811615612efb579190565b50600190565b50505050600090600390565b604290612f18612f33565b906040519161190160f01b8352600283015260228201522090565b307f00000000000000000000000000000000000000000000000000000000000000006001600160a01b0316148061301e575b15612f8e577f000000000000000000000000000000000000000000000000000000000000000090565b60405160208101907f8b73c3c69bb8fe3d512ecc4cf759cc79239f7b179b0ffacaa9a75d522b39400f82527f000000000000000000000000000000000000000000000000000000000000000060408201527f000000000000000000000000000000000000000000000000000000000000000060608201524660808201523060a082015260a0815261207e816104ed565b507f00000000000000000000000000000000000000000000000000000000000000004614612f65565b60ff81146130855760ff811690601f8211613073576040519161306983610481565b8252602082015290565b604051632cd44ac360e21b8152600490fd5b5060405160008181549161309883611f54565b8083529260019081811690811561311c57506001146130bf575b506105f992500382610508565b600080805291507f290decd9548b62a8d60345a988386fc84ba6bc95484008f6362f93160ef3e5635b84831061310157506105f99350508101602001386130b2565b819350908160209254838589010152019101909184926130e8565b9050602092506105f994915060ff191682840152151560051b820101386130b2565b60ff81146131605760ff811690601f8211613073576040519161306983610481565b5060405160008160019182549261317684611f54565b8084529381811690811561311c575060011461319957506105f992500382610508565b600081815291507fb10e2d527612073b26eecdfd717e6a320cf44b4afac2b0732d9fcbe2b7fa0cf65b8483106131db57506105f99350508101602001386130b2565b819350908160209254838589010152019101909184926131c2565b8115613200570490565b634e487b7160e01b600052601260045260246000fd5b801561335057806132e96132e26132d86132ce6132c46132ba6132b06132a660016105f99a6000908b60801c80613344575b508060401c80613337575b508060201c8061332a575b508060101c8061331d575b508060081c80613310575b508060041c80613303575b508060021c806132f6575b50821c6132ef575b811c1b61329f818b6131f6565b0160011c90565b61329f818a6131f6565b61329f81896131f6565b61329f81886131f6565b61329f81876131f6565b61329f81866131f6565b61329f81856131f6565b80926131f6565b90613356565b8101613292565b600291509101903861328a565b600491509101903861327f565b6008915091019038613274565b6010915091019038613269565b602091509101903861325e565b6040915091019038613253565b91505060809038613248565b50600090565b9080821015613363575090565b905090565b6001600160e01b039081811161337c571690565b60405162461bcd60e51b815260206004820152602760248201527f53616665436173743a2076616c756520646f65736e27742066697420696e20326044820152663234206269747360c81b6064820152608490fd5b65ffffffffffff908181116133e4571690565b60405162461bcd60e51b815260206004820152602660248201527f53616665436173743a2076616c756520646f65736e27742066697420696e203460448201526538206269747360d01b6064820152608490fd5b63ffffffff90818111613449571690565b60405162461bcd60e51b815260206004820152602660248201527f53616665436173743a2076616c756520646f65736e27742066697420696e203360448201526532206269747360d01b6064820152608490fd5b6004549081600f0b809260801d600f0b13156134e85781600052600560205260406000209160008354935560016001600160801b03196004541691016001600160801b031617600455565b604051631ed9509560e11b8152600490fd5b600181036135085750600090565b600281036135165750600190565b600381036135245750600490565b600481036135325750600590565b60050361353e57600790565b600290565b1561354a57565b60405162461bcd60e51b815260206004820152601d60248201527f476f7665726e6f723a2070726f706f73657220726573747269637465640000006044820152606490fd5b1561359657565b60405162461bcd60e51b815260206004820152603160248201527f476f7665726e6f723a2070726f706f73657220766f7465732062656c6f7720706044820152701c9bdc1bdcd85b081d1a1c995cda1bdb19607a1b6064820152608490fd5b156135fc57565b60405162461bcd60e51b815260206004820152602160248201527f476f7665726e6f723a20696e76616c69642070726f706f73616c206c656e67746044820152600d60fb1b6064820152608490fd5b1561365257565b60405162461bcd60e51b815260206004820152601860248201527f476f7665726e6f723a20656d7074792070726f706f73616c00000000000000006044820152606490fd5b1561369e57565b60405162461bcd60e51b815260206004820152602160248201527f476f7665726e6f723a2070726f706f73616c20616c72656164792065786973746044820152607360f81b6064820152608490fd5b815160208301516040808501516001600160401b039384169290911b68010000000000000000600160e01b0316919091176001600160e01b03199091161782556060830151608084015167ffffffffffffffff1916911617600182015561053691906137839060c0906002019261377c61376a60a0830151151590565b859060ff801983541691151516179055565b0151151590565b815461ff00191690151560081b61ff0016179055565b906137a3826109f4565b6137b06040519182610508565b82815280926137c1601f19916109f4565b019060005b8281106137d257505050565b8060606020809385010152016137c6565b959261381690613824939b9a9899969592885260209b60018060a01b03168c8901526101208060408a0152880190611f8e565b9086820360608801526114f5565b9784890360808601528251808a52818a019180808360051b8d01019501926000905b8382106138835750505050506105f99697509061386a9184820360a0860152611fcb565b9360c083015260e082015261010081840391015261083c565b909192939583806138a28f93600194601f199082030186528a5161083c565b98019201920190939291613846565b613a317f7d84a6263ae0d98d3329bd7b46bb4e8d6f98cd35a7adb45c274c8b7fd5ebd5e093946138e96138e48233613a48565b613543565b6138f4610708612729565b9561391461390a6139048961298a565b336121b5565b600854111561358f565b61398f61392983516020850120838888612020565b9761393786518851146135f5565b61394486518451146135f5565b6139508651151561364b565b6139866001600160401b0361397f6139728c6000526003602052604060002090565b546001600160401b031690565b1615613697565b60065490612545565b61399b60075482612545565b91613a196139a883613b85565b6139eb6139b486613b85565b6139ce6139bf610538565b6001600160401b039094168452565b336020840152600060408401526001600160401b03166060830152565b60006080820152600060a0820152600060c0820152613a148b6000526003602052604060002090565b6136ed565b613a238651613799565b604051978897338c8a6137e3565b0390a190565b908151811015612180570160200190565b815160348110613aff5760131981840101516001600160a01b0319166b1b91f1b211f2119351b859f160a31b01613aff5791600092613a8681612999565b915b818310613aa3575050506001600160a01b0391821691161490565b909193613ac9613ac4613ab68785613a37565b516001600160f81b03191690565b613b07565b919015613af45760041b6010600160a01b031660ff919091161793613aed90612147565b9190613a88565b505050505050600190565b505050600190565b60f81c9081602f1080613b7b575b15613b2757600191602f190160ff1690565b8160401080613b71575b15613b43576001916036190160ff1690565b8160601080613b67575b15613b5f576001916056190160ff1690565b600091508190565b5060678210613b4d565b5060478210613b31565b50603a8210613b15565b6001600160401b0390818111613b99571690565b60405162461bcd60e51b815260206004820152602660248201527f53616665436173743a2076616c756520646f65736e27742066697420696e203660448201526534206269747360d01b6064820152608490fd5b919060018060a01b03600c541690813b156103d857600093613c256040519687958694859463e38335e560e01b865260048601612695565b039134905af18015610d4c57613c385750565b61053690610469565b90613c4d939291612020565b613c56816134fa565b6008811015610f3557806002613c7b9214159081613d87575b81613d72575b50613d9d565b613ca46002613c94836000526003602052604060002090565b01805461ff001916610100179055565b6040518181527f789cf55be980739dad1d0699b93b58e806b51c9d96619bfa8fe0a28abaa7b30c90602090a1613ce481600052600d602052604060002090565b54613cec5790565b600c54613d01906001600160a01b0316610c00565b613d1582600052600d602052604060002090565b5490803b156103d85760405163c4d252f560e01b815260048101929092526000908290602490829084905af18015610d4c57613d5f575b506000818152600d602052604081205590565b80610d40613d6c92610469565b38613d4c565b60079150613d7f8161108b565b141538613c75565b9050613d928161108b565b600681141590613c6f565b15613da457565b60405162461bcd60e51b815260206004820152601d60248201527f476f7665726e6f723a2070726f706f73616c206e6f74206163746976650000006044820152606490fdfe0175b7a638427703f0dbe7bb9bbf987a2551717b34e79f33b5b1008d1fa01db9a2646970667358221220909ba3a8d5f58b4b0c65ed433ee66b285eae909619a9c7b92ca912c886856a2364736f6c634300081400330553476bf02ef2726e8ce5ced78d63e26e602e4a2257b1f559418e24b4633997",
  "linkReferences": {},
  "deployedLinkReferences": {}
}