{
  "_format": "hh-sol-artifact-1",
  "contractName": "DAOProxy",
  "sourceName": "contracts/DAOProxy.sol",
  "abi": [
    {
      "inputs": [
        {
          "internalType": "uint256",
          "name": "proposalId",
          "type": "uint256"
        }
      ],
      "name": "isVestingInvalidated",
      "outputs": [
        {
          "internalType": "bool",
          "name": "",
          "type": "bool"
        }
      ],
      "stateMutability": "view",
      "type": "function"
    },
    {
      "inputs": [
        {
          "internalType": "uint256",
          "name": "proposalId",
          "type": "uint256"
        }
      ],
      "name": "isWithdrawFrozen",
      "outputs": [
        {
          "internalType": "bool",
          "name": "",
          "type": "bool"
        }
      ],
      "stateMutability": "view",
      "type": "function"
    },
    {
      "inputs": [
        {
          "internalType": "uint256",
          "name": "",
          "type": "uint256"
        }
      ],
      "name": "proposalFrozen",
      "outputs": [
        {
          "internalType": "bool",
          "name": "",
          "type": "bool"
        }
      ],
      "stateMutability": "view",
      "type": "function"
    },
    {
      "inputs": [
        {
          "internalType": "uint256",
          "name": "",
          "type": "uint256"
        }
      ],
      "name": "proposalInvalidated",
      "outputs": [
        {
          "internalType": "bool",
          "name": "",
          "type": "bool"
        }
      ],
      "stateMutability": "view",
      "type": "function"
    },
    {
      "inputs": [],
      "name": "proposals",
      "outputs": [
        {
          "internalType": "uint256",
          "name": "",
          "type": "uint256"
        }
      ],
      "stateMutability": "view",
      "type": "function"
    },
    {
      "inputs": [
        {
          "internalType": "address[]",
          "name": "targets",
          "type": "address[]"
        },
        {
          "internalType": "uint256[]",
          "name": "values",
          "type": "uint256[]"
        },
        {
          "internalType": "bytes[]",
          "name": "calldatas",
          "type": "bytes[]"
        },
        {
          "internalType": "string",
          "name": "description",
          "type": "string"
        }
      ],
      "name": "propose",
      "outputs": [
        {
          "internalType": "uint256",
          "name": "",
          "type": "uint256"
        }
      ],
      "stateMutability": "nonpayable",
      "type": "function"
    },
    {
      "inputs": [
        {
          "internalType": "uint256",
          "name": "proposalId",
          "type": "uint256"
        },
        {
          "internalType": "bool",
          "name": "frozen",
          "type": "bool"
        }
      ],
      "name": "setProposalFrozen",
      "outputs": [],
      "stateMutability": "nonpayable",
      "type": "function"
    },
    {
      "inputs": [
        {
          "internalType": "uint256",
          "name": "proposalId",
          "type": "uint256"
        },
        {
          "internalType": "bool",
          "name": "invalidated",
          "type": "bool"
        }
      ],
      "name": "setProposalInvalidated",
      "outputs": [],
      "stateMutability": "nonpayable",
      "type": "function"
    }
  ],
  "bytecode": "0x6080806040523461001b5760006002556104cc90816100218239f35b600080fdfe6080604081815260048036101561001557600080fd5b600092833560e01c9081634a81ce66146103b15750806355ef20e6146103925780635b8647c21461036357806376247223146102c85780637d5e81e2146100d557806386710a98146100aa578063dcb6ddbf146100aa5763ef2406341461007b57600080fd5b346100a65760203660031901126100a6578160209360ff923581526001855220541690519015158152f35b8280fd5b50346100a65760203660031901126100a6578160209360ff9235815280855220541690519015158152f35b509190346102c45760803660031901126102c45782359167ffffffffffffffff938484116102c457366023850112156102c457838101359461011e6101198761043c565b610400565b9486865260208096016024809860051b8301019136831161029d578801905b8282106102a55750505085358181116102a157366023820112156102a15780830135878761016d6101198461043c565b838152019160051b8301019136831161029d5788889101915b83831061028d57505050506044803590828211610289573660238301121561028957818401359088886101bb6101198561043c565b848152019260051b8401019236841161028557898101925b84841061024b5750505050506064359081116100a657366023820112156100a65761020690369087818501359101610454565b506002549060018201809211610239575090818392600255815280845220600160ff198254161790556002549051908152f35b634e487b7160e01b8352601190528482fd5b833586811161028157820136604382011215610281578a916102768d84938736928201359101610454565b8152019301926101d3565b8880fd5b8680fd5b8480fd5b8235815291810191889101610186565b8580fd5b8380fd5b81356001600160a01b038116810361028557815290870190870161013d565b5080fd5b508290346102c4576102d9366103dc565b918184528360205260ff858520541615610311575092829361030e9352600160205283209060ff801983541691151516179055565b80f35b608490602086519162461bcd60e51b8352820152602660248201527f50726f706f73616c206d7573742062652066726f7a656e20746f20696e76616c60448201526534b230ba329760d11b6064820152fd5b5050346102c45761030e90610377366103dc565b919084528360205283209060ff801983541691151516179055565b5050346102c457816003193601126102c4576020906002549051908152f35b92919050346102a15760203660031901126102a1573583526001602090815292205460ff1615158152f35b60409060031901126103fb576004359060243580151581036103fb5790565b600080fd5b6040519190601f01601f1916820167ffffffffffffffff81118382101761042657604052565b634e487b7160e01b600052604160045260246000fd5b67ffffffffffffffff81116104265760051b60200190565b92919267ffffffffffffffff821161042657610479601f8301601f1916602001610400565b93828552828201116103fb5781600092602092838701378401015256fea2646970667358221220823f0deb9577f9f3e73aa3cb5ff59a1aea152e5a8102fbfd4f686f0e3e96573664736f6c63430008140033",
  "linkReferences": {},
  "deployedLinkReferences": {}
}